:100000000C942A000C9410110C9447110C947E113E
:100010000C948B0A0C94C20A0C9447000C94470071
:100020000C9447000C9447000C94F90A0C94300B84
:100030000C9447000C9447000C9447000C94470024
:100040000C948A190C9447000C9447000C944700B8
:100050000C94470011241FBECFE5D8E0DEBFCDBF12
:1000600011E0A0E6B0E0E2E7F4E502C005900D92F1
:10007000A43AB107D9F711E0A4EAB1E001C01D929A
:10008000A43DB107E1F70E9461290C94372A0C9432
:100090000000EF92FF920F931F937B018C0120E0F1
:1000A00030E040E05FE40E94790388238CF0C801CF
:1000B000B70120E030E040E05FE40E94C1010E940F
:1000C00009049B01AC01205030404040504806C01C
:1000D000C801B7010E9409049B01AC01B901CA0122
:1000E0001F910F91FF90EF900895A0E0B0E0EBE733
:1000F000F0E00C94002ADC012B01FA019C91923073
:1001000008F439C1EB018881823008F433C194309E
:1001100069F4843009F02FC111969C91119789815F
:10012000981709F428C1A0E6B0E025C1843009F48D
:1001300021C18230A9F4923009F01DC19A01AD01AC
:1001400088E0EA010990AE01E90109929E0181501F
:10015000C1F7E201898111969C918923818308C1AD
:10016000923009F407C112962D903C901397EB0141
:100170008A819B811496AD90BD90CD90DC901797AD
:10018000EC80FD800E811F819101281B390BB90184
:1001900037FF04C066277727621B730B6032710537
:1001A0000CF061C0121613066CF537014801062EDB
:1001B00004C096948794779467940A94D2F721E0C8
:1001C00030E040E050E004C0220F331F441F551FB1
:1001D0006A95D2F721503040404050402E213F21B7
:1001E00040235123211531054105510521F021E01E
:1001F00030E040E050E079018A01E628F72808293C
:1002000019293CC0232BD1F1260E371E350146019A
:10021000062E04C096948794779467940A94D2F734
:1002200021E030E040E050E004C0220F331F441FC3
:10023000551F6A95D2F721503040404050402A2146
:100240003B214C215D21211531054105510521F04E
:1002500021E030E040E050E059016A01A628B728CB
:10026000C828D9280BC0821593052CF01C01AA249C
:10027000BB24650103C0EE24FF24870111969C91E5
:10028000D20111968C91981709F445C0992339F041
:10029000A80197012A193B094C095D0906C0A6016E
:1002A00095012E193F09400B510B57FD08C01182D3
:1002B0003382228224833583468357831DC081E0A5
:1002C00081833382228288279927DC01821B930B4A
:1002D000A40BB50B84839583A683B7830DC0220F2F
:1002E000331F441F551F24833583468357838281E0
:1002F000938101979383828324813581468157813D
:10030000DA01C9010197A109B1098F5F9F4FAF4F72
:10031000BF4328F30BC0918333822282EA0CFB1C7B
:100320000C1D1D1DE482F5820683178383E0808304
:10033000248135814681578157FF1AC0C901AA27F8
:1003400097FDA095BA2F81709070A070B0705695EF
:10035000479537952795822B932BA42BB52B848318
:100360009583A683B7838281938101969383828349
:10037000DF0101C0D201CD01CDB7DEB7E2E10C94BF
:100380001C2AA0E2B0E0E7ECF1E00C940C2A6983AF
:100390007A838B839C832D833E834F835887E9E048
:1003A000EE2EF12CEC0EFD1ECE010196B7010E943F
:1003B000FA058E010F5E1F4FCE010596B8010E940F
:1003C000FA058A8991E089278A8BC701B801AE01B5
:1003D000475E5F4F0E9475000E942505A096E6E0EB
:1003E0000C94282AA0E2B0E0E8EFF1E00C940C2A8B
:1003F00069837A838B839C832D833E834F835887C5
:10040000F9E0EF2EF12CEC0EFD1ECE010196B701A6
:100410000E94FA058E010F5E1F4FCE010596B801AE
:100420000E94FA05C701B801AE01475E5F4F0E9406
:1004300075000E942505A096E6E00C94282AA0E20B
:10044000B0E0E5E2F2E00C94002A69837A838B83C2
:100450009C832D833E834F835887CE010196BE0136
:10046000675F7F4F0E94FA05CE010596BE016F5E61
:100470007F4F0E94FA059985923088F089898230F1
:10048000C8F0943019F4823051F404C0843029F457
:10049000923081F480E690E0C6C0923049F420E0CA
:1004A0009A858A89981321E02A87CE010996BBC0D4
:1004B000823049F420E09A858A89981321E02A8BBA
:1004C000CE014196B0C02D843E844F8458886D88FB
:1004D0007E888F88988CEE24FF248701AA24BB2471
:1004E000650140E050E060E070E0E0E0F0E0C10174
:1004F00081709070892BE9F0E60CF71C081D191D1E
:100500009A01AB012A0D3B1D4C1D5D1D80E090E062
:10051000A0E0B0E0E614F7040805190520F481E036
:1005200090E0A0E0B0E0BA01A901480F591F6A1F8E
:100530007B1FAA0CBB1CCC1CDD1C97FE08C081E0F5
:1005400090E0A0E0B0E0A82AB92ACA2ADB2A3196B6
:10055000E032F10549F0660C771C881C991C569412
:10056000479437942794C3CFFA85EA892B893C892D
:100570008B859C85280F391F2E5F3F4F17C0CA01FE
:1005800081709070892B61F016950795F794E79428
:1005900080E090E0A0E0B0E8E82AF92A0A2B1B2BC3
:1005A00076956795579547952F5F3F4F77FDE7CF36
:1005B0000CC0440F551F661F771F17FD4160EE0CDE
:1005C000FF1C001F111F21503040403090E05907A0
:1005D00090E0690790E4790760F32B8F3C8FDB0193
:1005E000CA018F779070A070B07080349105A1051A
:1005F000B10561F447FD0AC0E114F10401051105DC
:1006000029F0405C5F4F6F4F7F4F40781A8EFE1786
:1006100011F081E08A8F4D8F5E8F6F8F78A383E01A
:10062000898FCE0149960E942505A096E2E10C949F
:100630001C2AA8E1B0E0EFE1F3E00C940C2A6983F6
:100640007A838B839C832D833E834F83588789E0F5
:10065000E82EF12CEC0EFD1ECE010196B7010E9492
:10066000FA058E010F5E1F4FCE010596B8010E945C
:10067000FA058985823040F08989823028F0C701E7
:10068000B8010E94720601C081E06896E6E00C9411
:10069000282AA8E1B0E0EFE4F3E00C940C2A698387
:1006A0007A838B839C832D833E834F83588789E095
:1006B000E82EF12CEC0EFD1ECE010196B7010E9432
:1006C000FA058E010F5E1F4FCE010596B8010E94FC
:1006D000FA058985823040F08989823028F0C70187
:1006E000B8010E94720601C08FEF6896E6E00C9494
:1006F000282AA8E1B0E0EFE7F3E00C940C2A698324
:100700007A838B839C832D833E834F83588789E034
:10071000E82EF12CEC0EFD1ECE010196B7010E94D1
:10072000FA058E010F5E1F4FCE010596B8010E949B
:10073000FA058985823040F08989823028F0C70126
:10074000B8010E94720601C08FEF6896E6E00C9433
:10075000282AA8E1B0E0EFEAF3E00C940C2A6983C0
:100760007A838B839C832D833E834F83588789E0D4
:10077000E82EF12CEC0EFD1ECE010196B7010E9471
:10078000FA058E010F5E1F4FCE010596B8010E943B
:10079000FA058985823040F08989823028F0C701C6
:1007A000B8010E94720601C081E06896E6E00C94F0
:1007B000282AA8E1B0E0EFEDF3E00C940C2A69835D
:1007C0007A838B839C832D833E834F83588789E074
:1007D000E82EF12CEC0EFD1ECE010196B7010E9411
:1007E000FA058E010F5E1F4FCE010596B8010E94DB
:1007F000FA058985823040F08989823028F0C70166
:10080000B8010E94720601C081E06896E6E00C948F
:10081000282AACE0B0E0EFE0F4E00C94102A698301
:100820007A838B839C83CE010196BE016B5F7F4FE1
:100830000E94FA058D81823061F1823050F184305E
:1008400021F48E81882351F12EC02F81388537FD08
:1008500020C06E812F3131051CF06623F9F023C0D2
:100860008EE190E0821B930B29853A854B855C8550
:1008700004C056954795379527958A95D2F76623F4
:10088000B1F050954095309521953F4F4F4F5F4FB8
:100890000EC020E030E040E050E009C02FEF3FEF15
:1008A0004FEF5FE704C020E030E040E050E8B901DE
:1008B000CA012C96E2E00C942C2AA8E0B0E0E3E612
:1008C000F4E00C94082A7B018C0161157105810507
:1008D000910519F482E0898360C083E089838EE109
:1008E000C82ED12CDC82CB82ED82FE820F8318874A
:1008F000C801B7010E94D604FC013197F7FF3BC045
:10090000222733272E1B3F0B57016801022E04C0FC
:10091000D694C794B794A7940A94D2F740E050E0D5
:1009200060E070E081E090E0A0E0B0E004C0880FFB
:10093000991FAA1FBB1F2A95D2F70197A109B109D8
:100940008E219F21A023B1230097A105B10521F09D
:1009500041E050E060E070E04A295B296C297D2984
:100960004D835E836F8378878EE190E08E1B9F0BB3
:100970009C838B8312C0309781F00E2E04C0EE0C46
:10098000FF1C001F111F0A94D2F7ED82FE820F8315
:100990001887CE1ADF0ADC82CB821A82CE0101963A
:1009A0000E9425052896EAE00C94242AEF92FF92F3
:1009B0000F931F937B018C0180E0E81680E0F8061E
:1009C00081E0080780E0180788F48FEFE816F1044B
:1009D0000105110531F028F088E090E0A0E0B0E0DA
:1009E00017C080E090E0A0E0B0E012C080E0E81620
:1009F00080E0F80680E0080781E0180728F088E129
:100A000090E0A0E0B0E004C080E190E0A0E0B0E0C1
:100A100020E230E040E050E0281B390B4A0B5B0B32
:100A200004C016950795F794E7948A95D2F7F701D5
:100A3000E859FF4F8081281B310941095109C9013B
:100A40001F910F91FF90EF900895DF92EF92FF9228
:100A50000F931F93FC01E480F58006811781D180FC
:100A60008081823048F480E090E0A0E1B0E0E82AA4
:100A7000F92A0A2B1B2BA5C0843009F49FC08230B1
:100A800021F4EE24FF24870105C0E114F1040105DF
:100A9000110519F4E0E0F0E096C0628173819FEFE8
:100AA000623879070CF05BC022E83FEF261B370B5A
:100AB0002A3131052CF020E030E040E050E02AC03F
:100AC000B801A701022E04C0769567955795479502
:100AD0000A94D2F781E090E0A0E0B0E004C0880F73
:100AE000991FAA1FBB1F2A95D2F70197A109B10927
:100AF0008E219F21A023B1230097A105B10521F0EC
:100B000081E090E0A0E0B0E09A01AB01282B392B06
:100B10004A2B5B2BDA01C9018F779070A070B070FF
:100B200080349105A105B10539F427FF09C0205C87
:100B30003F4F4F4F5F4F04C0215C3F4F4F4F5F4FC0
:100B4000E0E0F0E02030A0E03A07A0E04A07A0E4AF
:100B50005A0710F0E1E0F0E079018A0127C060381F
:100B6000710564F5FB01E158FF4FD801C7018F778C
:100B70009070A070B07080349105A105B10539F472
:100B8000E7FE0DC080E490E0A0E0B0E004C08FE399
:100B900090E0A0E0B0E0E80EF91E0A1F1B1F17FF4F
:100BA00005C016950795F794E794319687E016955A
:100BB0000795F794E7948A95D1F705C0EE24FF24B2
:100BC0008701EFEFF0E06E2F679566276795902F0E
:100BD0009F77D794DD24D7948E2F8695492F462B67
:100BE000582F5D29B701CA011F910F91FF90EF9017
:100BF000DF900895FC01DB01408151812281622F49
:100C00006F7770E0221F2227221F9381892F880F80
:100C1000822B282F30E0991F9927991F11969C93BA
:100C2000119721153105A9F541155105610571058A
:100C300011F482E037C082E89FEF13969C938E9365
:100C400012979A01AB0167E0220F331F441F551F13
:100C50006A95D1F783E08C930DC0220F331F441F98
:100C6000551F12968D919C911397019713969C9303
:100C70008E931297203080E0380780E0480780E4A8
:100C8000580758F314962D933D934D935C93179703
:100C900008952F3F310579F441155105610571051E
:100CA00019F484E08C93089564FF03C081E08C9371
:100CB00012C01C9210C02F57304013963C932E93B5
:100CC000129783E08C9387E0440F551F661F771FB0
:100CD0008A95D1F7706414964D935D936D937C93D0
:100CE000179708951F93DC01FB019C91923008F443
:100CF00047C08081823008F443C0943051F411968B
:100D00001C91843099F58181682F70E0611B710915
:100D10003FC0843021F0923031F48230B9F18181CA
:100D2000882389F12DC011961C9111978230F1F022
:100D300081811817D9F412962D913C9113978281D5
:100D400093818217930794F028173907BCF0149603
:100D50008D919D910D90BC91A02D2481358146816E
:100D60005781281739074A075B0718F4112341F008
:100D70000AC082179307A407B50740F4112319F09E
:100D800061E070E005C06FEF7FEF02C060E070E0EF
:100D9000CB011F910895DF93CF9300D000D000D0F6
:100DA000CDB7DEB71A8219821B821C821D821E8279
:100DB0001982B3C08981282F30E0C901880F991F9B
:100DC000880F991F820F931FFC01E759FE4F408146
:100DD0008981282F30E0C901880F991F880F991F3A
:100DE000820F931FFC01E659FE4F9081842F692FDB
:100DF0000E94670B8B838981282F30E0C901880FFF
:100E0000991F880F991F820F931FFC01E759FE4F0E
:100E100040818981282F30E0C901880F991F880FF0
:100E2000991F820F931FFC01E559FE4F9081842F7B
:100E3000692F0E94310C8C838981282F30E0C901F1
:100E4000880F991F880F991F820F931FFC01E75984
:100E5000FE4F50818981282F30E0C901880F991FEA
:100E6000880F991F820F931FFC01E659FE4F4081A6
:100E70008981282F30E0C901880F991F880F991F99
:100E8000820F931FFC01E459FE4F9081852F642F40
:100E9000492F0E94570E8D838981282F30E0C90188
:100EA000880F991F880F991F820F931FFC01E75924
:100EB000FE4F50818981282F30E0C901880F991F8A
:100EC000880F991F820F931FFC01E659FE4F408146
:100ED0008981282F30E0C901880F991F880F991F39
:100EE000820F931FFC01E359FE4F9081852F642FE1
:100EF000492F0E94F00E8E838B81813049F08C81C6
:100F0000813031F08D81813019F08E81813011F482
:100F100081E08A8389818F5F8983909168018981CB
:100F2000891708F447CF8A8126960FB6F894DEBF5A
:100F30000FBECDBFCF91DF910895DF93CF9300D047
:100F400000D000D0CDB7DEB78A837C836B8381E08D
:100F500089838A81282F30E03E832D838D819E8175
:100F600081309105B9F02D813E812230310551F05B
:100F70008D819E81009761F4ECE5F0E08B818083A8
:100F8000198208C0E3E4F0E08B818083198202C0FB
:100F900082E08983898126960FB6F894DEBF0FBE62
:100FA000CDBFCF91DF910895DF93CF9300D000D0D4
:100FB00000D0CDB7DEB78A837C836B8381E08983E1
:100FC0008A81282F30E03E832D838D819E81813060
:100FD0009105B1F02D813E812230310551F08D8196
:100FE0009E81009759F4E2E5F0E08B8180831982BD
:100FF00007C0E4E4F0E08B81808302C082E0898353
:10100000898126960FB6F894DEBF0FBECDBFCF9173
:10101000DF910895DF93CF9300D000D000D0CDB7FB
:10102000DEB78A837C836B8381E089838B819C819B
:10103000009761F18A81282F30E03E832D838D81D6
:101040009E818130910521F12D813E812230310533
:1010500079F08D819E810097B1F4E2E5F0E0808126
:10106000882F90E0EB81FC8191838083198210C0EE
:10107000E4E4F0E08081882F90E0EB81FC819183B3
:101080008083198205C082E0898302C083E089835E
:10109000898126960FB6F894DEBF0FBECDBFCF91E3
:1010A000DF910895DF93CF9300D00F92CDB7DEB7D5
:1010B0008A836B8381E089838A816B810E94310CF2
:1010C000898389810F900F900F90CF91DF910895C0
:1010D0000F931F93DF93CF93CDB7DEB72C970FB647
:1010E000F894DEBF0FBECDBF8A836B834C830D8324
:1010F0001E832F83388781E089831C866D817E81E2
:101100008F81988520E030E040E050E00E94790334
:10111000882314F021E02C8781E03C8583278823F5
:1011200009F066C11B866D817E818F81988520E0E4
:1011300030E040E85FE30E94D903181614F081E024
:101140008B8781E09B858927882309F051C18A819B
:10115000E82FF0E0FA87E98729853A8521303105C3
:1011600009F448C189859A858230910509F4A0C0A7
:10117000E985FA85309709F038C18B81823009F012
:1011800043C08C818630C1F40CE510E06D817E8116
:101190008F81988520E030E040E853E40E941F02F0
:1011A000DC01CB01BC01CD010E944900DC01CB0177
:1011B000F801808319821EC18C81873011F50CE5FE
:1011C00010E06D817E818F81988520E030E040E8DD
:1011D00053EC0E941F02DC01CB01BC01CD0120E0D9
:1011E00030E040E853E40E94F201DC01CB01BC0195
:1011F000CD010E944900DC01CB01F80180831982F6
:10120000F9C082E08983F6C08B81833009F04DC03C
:101210008C81843011F50CE510E06D817E818F8129
:10122000988520E030E840E853E40E941F02DC018A
:10123000CB01BC01CD0120E030E040E85FE30E943B
:10124000C101DC01CB01BC01CD010E944900DC01E0
:10125000CB01F80180831982CDC08C81853011F5D6
:101260000CE510E06D817E818F81988520E030E86B
:1012700040E853EC0E941F02DC01CB01BC01CD0110
:1012800020E030E040E853E40E94F201DC01CB01B1
:10129000BC01CD010E944900DC01CB01F801808333
:1012A0001982A8C082E08983A5C082E08983A2C098
:1012B0008B81823009F043C08C818630C1F403E415
:1012C00010E06D817E818F81988520E030E040E8DC
:1012D00053E40E941F02DC01CB01BC01CD010E943E
:1012E0004900DC01CB01F8018083198283C08C8125
:1012F000873011F503E410E06D817E818F81988540
:1013000020E030E040E853EC0E941F02DC01CB01FA
:10131000BC01CD0120E030E040E853E40E94F2013E
:10132000DC01CB01BC01CD010E944900DC01CB01F5
:10133000F801808319825EC082E089835BC08B8163
:10134000833009F04FC08C81843019F503E410E03C
:101350006D817E818F81988520E030E840E853E4FC
:101360000E941F02DC01CB01BC01CD0120E030E076
:1013700040E853E40E94C101DC01CB01B058BC013C
:10138000CD010E944900DC01CB01F8018083198264
:1013900027C08C81853011F503E410E06D817E81DA
:1013A0008F81988520E030E840E853E40E941F02D6
:1013B000DC01CB01BC01CD0120E030E040E85FE37F
:1013C0000E94C101DC01CB01BC01CD010E9449009A
:1013D000DC01CB01F8018083198202C082E089839D
:1013E000198208C082E0898305C082E0898302C037
:1013F00082E0898389812C960FB6F894DEBF0FBEF8
:10140000CDBFCF91DF911F910F910895DF93CF93BF
:10141000CDB7DEB729970FB6F894DEBF0FBECDBFAC
:101420008A836B835D834C833F832E8381E0898332
:101430008C819D81009709F462C08A81282F30E059
:1014400039872887888599858130910509F459C0A5
:10145000288539852230310551F188859985009795
:1014600009F04AC08B81882371F48C819D8190930F
:10147000B3018093B2018E819F819093C3018093C9
:10148000C20119823EC08B81813071F48C819D81B3
:101490009093B1018093B0018E819F819093C1019F
:1014A0008093C00119822DC082E089832AC08B817C
:1014B000882371F48C819D819093A7018093A6016C
:1014C0008E819F819093B7018093B601198219C0D4
:1014D0008B81813071F48C819D819093A5018093E3
:1014E000A4018E819F819093B5018093B4011982EC
:1014F00008C082E0898305C082E0898302C083E05E
:101500008983898129960FB6F894DEBF0FBECDBFBF
:10151000CF91DF9108951F920F920FB60F92112471
:101520002F933F934F935F936F937F938F939F93EB
:10153000AF93BF93EF93FF93DF93CF93CDB7DEB716
:101540008091A4019091A501009749F0E091A40138
:10155000F091A5018091B4019091B5010995CF91C9
:10156000DF91FF91EF91BF91AF919F918F917F910B
:101570006F915F914F913F912F910F900FBE0F9000
:101580001F9018951F920F920FB60F9211242F9350
:101590003F934F935F936F937F938F939F93AF93FB
:1015A000BF93EF93FF93DF93CF93CDB7DEB78091D7
:1015B000A4019091A501009749F0E091A401F09158
:1015C000A5018091B4019091B5010995CF91DF916A
:1015D000FF91EF91BF91AF919F918F917F916F910B
:1015E0005F914F913F912F910F900FBE0F901F90E1
:1015F00018951F920F920FB60F9211242F933F93BD
:101600004F935F936F937F938F939F93AF93BF930A
:10161000EF93FF93DF93CF93CDB7DEB78091B00107
:101620009091B101009749F0E091B001F091B101C2
:101630008091C0019091C1010995CF91DF91FF91F7
:10164000EF91BF91AF919F918F917F916F915F913A
:101650004F913F912F910F900FBE0F901F901895B3
:101660001F920F920FB60F9211242F933F934F9317
:101670005F936F937F938F939F93AF93BF93EF93FA
:10168000FF93DF93CF93CDB7DEB78091B2019091F6
:10169000B301009749F0E091B201F091B30180915C
:1016A000C2019091C3010995CF91DF91FF91EF9114
:1016B000BF91AF919F918F917F916F915F914F916A
:1016C0003F912F910F900FBE0F901F901895DF93B1
:1016D000CF9300D000D00F92CDB7DEB78A836B8353
:1016E00081E089838A81282F30E03D832C838C819F
:1016F0009D818130910509F4ABC02C813D81223060
:10170000310509F454C08C819D81009709F09EC079
:101710008B81882381F4A3E5B0E0E3E5F0E08081EC
:101720008F7B8C93A3E5B0E0E3E5F0E08081877FD9
:101730008C9319828DC08B81813081F4A3E5B0E058
:10174000E3E5F0E0808180648C93A3E5B0E0E3E51D
:10175000F0E08081877F8C9319827AC08B81823000
:1017600081F4A3E5B0E0E3E5F0E080818F7B8C932A
:10177000A3E5B0E0E3E5F0E0808188608C93198216
:1017800067C08B81833081F4A3E5B0E0E3E5F0E04E
:10179000808180648C93A3E5B0E0E3E5F0E0808194
:1017A00088608C93198254C082E0898351C08B81F8
:1017B000882381F4A5E4B0E0E5E4F0E080818F7B4C
:1017C0008C93A5E4B0E0E5E4F0E08081877F8C9322
:1017D00019823EC08B81813081F4A5E4B0E0E5E45C
:1017E000F0E0808180648C93A5E4B0E0E5E4F0E073
:1017F0008081877F8C9319822BC08B81823081F40A
:10180000A5E4B0E0E5E4F0E080818F7B8C93A5E473
:10181000B0E0E5E4F0E0808188608C93198218C024
:101820008B81833081F4A5E4B0E0E5E4F0E08081D1
:1018300080648C93A5E4B0E0E5E4F0E0808188600A
:101840008C93198205C082E0898302C082E089837B
:1018500089810F900F900F900F900F90CF91DF9193
:101860000895DF93CF93CDB7DEB729970FB6F894DD
:10187000DEBF0FBECDBF8A836B8381E089838A81FF
:10188000282F30E039872887888599858130910510
:1018900009F403C2288539852230310509F400C1D5
:1018A00088859985009709F0F6C18B81282F30E053
:1018B0003F832E838E819F818430910509F47AC005
:1018C0002E813F81253031058CF48E819F818130BE
:1018D000910509F441C02E813F812230310509F480
:1018E00052C08E819F81009701F1D7C02E813F8128
:1018F0002730310509F48CC08E819F818830910595
:101900003CF42E813F812630310509F46AC0C5C000
:101910008E819F818830910509F491C02E813F818D
:101920002930310509F4A2C0B8C0A3E5B0E0E3E571
:10193000F0E080818E7F8C93A3E5B0E0E3E5F0E0FA
:1019400080818D7F8C93A3E5B0E0E3E5F0E08081BA
:101950008B7F8C931982A1C1A3E5B0E0E3E5F0E0B1
:10196000808181608C93A3E5B0E0E3E5F0E08081C5
:101970008D7F8C93A3E5B0E0E3E5F0E080818B7F81
:101980008C9319828AC1A3E5B0E0E3E5F0E08081A1
:101990008E7F8C93A3E5B0E0E3E5F0E08081826088
:1019A0008C93A3E5B0E0E3E5F0E080818B7F8C933E
:1019B000198273C1A3E5B0E0E3E5F0E080818160C6
:1019C0008C93A3E5B0E0E3E5F0E0808182608C9346
:1019D000A3E5B0E0E3E5F0E080818B7F8C93198292
:1019E0005CC1A3E5B0E0E3E5F0E080818E7F8C93FD
:1019F000A3E5B0E0E3E5F0E080818D7F8C93A3E583
:101A0000B0E0E3E5F0E0808184608C93198245C109
:101A1000A3E5B0E0E3E5F0E0808181608C93A3E58D
:101A2000B0E0E3E5F0E080818D7F8C93A3E5B0E04A
:101A3000E3E5F0E0808184608C9319822EC1A3E5F8
:101A4000B0E0E3E5F0E080818E7F8C93A3E5B0E029
:101A5000E3E5F0E0808182608C93A3E5B0E0E3E50C
:101A6000F0E0808184608C93198217C1A3E5B0E017
:101A7000E3E5F0E0808181608C93A3E5B0E0E3E5ED
:101A8000F0E0808182608C93A3E5B0E0E3E5F0E0D4
:101A9000808184608C93198200C182E08983FDC0BB
:101AA000A2E4B0E0E2E4F0E08081877F8C938B8158
:101AB000282F30E03D832C838C819D8183309105DC
:101AC00009F473C02C813D812430310584F48C816C
:101AD0009D8181309105D9F12C813D8122303105E4
:101AE0000CF04CC08C819D810097D1F0D1C02C812D
:101AF0003D812530310509F486C08C819D8185307A
:101B000091050CF469C02C813D812630310509F422
:101B100091C08C819D818730910509F4A2C0B8C025
:101B2000A5E4B0E0E5E4F0E080818E7F8C93A5E44D
:101B3000B0E0E5E4F0E080818D7F8C93A5E4B0E037
:101B4000E5E4F0E080818B7F8C931982A6C0A5E448
:101B5000B0E0E5E4F0E0808181608C93A5E4B0E042
:101B6000E5E4F0E080818D7F8C93A5E4B0E0E5E4CE
:101B7000F0E080818B7F8C9319828FC0A5E4B0E068
:101B8000E5E4F0E080818E7F8C93A5E4B0E0E5E4AD
:101B9000F0E0808182608C93A5E4B0E0E5E4F0E0C1
:101BA00080818B7F8C93198278C0A5E4B0E0E5E456
:101BB000F0E0808181608C93A5E4B0E0E5E4F0E0A2
:101BC000808182608C93A5E4B0E0E5E4F0E0808160
:101BD0008B7F8C93198261C0A5E4B0E0E5E4F0E06E
:101BE00080818E7F8C93A5E4B0E0E5E4F0E0808115
:101BF0008D7F8C93A5E4B0E0E5E4F0E08081846023
:101C00008C9319824AC0A5E4B0E0E5E4F0E080815D
:101C100081608C93A5E4B0E0E5E4F0E080818D7F05
:101C20008C93A5E4B0E0E5E4F0E0808184608C93DF
:101C3000198233C0A5E4B0E0E5E4F0E080818E7F56
:101C40008C93A5E4B0E0E5E4F0E0808182608C93C1
:101C5000A5E4B0E0E5E4F0E0808184608C93198233
:101C60001CC0A5E4B0E0E5E4F0E0808181608C93E5
:101C7000A5E4B0E0E5E4F0E0808182608C93A5E427
:101C8000B0E0E5E4F0E0808184608C93198205C0C7
:101C900082E0898302C082E08983898129960FB618
:101CA000F894DEBF0FBECDBFCF91DF910895DF93D3
:101CB000CF9300D000D000D0CDB7DEB78A836B833E
:101CC0004C8381E089838A81282F30E03E832D83F5
:101CD0008D819E818130910509F478C02D813E81EE
:101CE00022303105A9F18D819E81009709F06EC0E7
:101CF0008B81882389F4A9E5B0E0E9E5F0E08081F3
:101D00008E7F8C93A9E5B0E0E9E5F0E090818C81CD
:101D1000892B8C9319825AC08B818130B1F4A9E54B
:101D2000B0E0E9E5F0E080818D7F8C93A9E5B0E03B
:101D3000E9E5F0E08081282F8C81882F90E0880FE2
:101D4000991F822B8C93198241C082E089833EC007
:101D50008B818823E9F4A9E5B0E0E9E5F0E0808132
:101D60008F7B8C93A9E5B0E0E9E5F0E08081282F36
:101D70008C81882F90E000249695879507949695FE
:101D800087950794982F802D822B8C9319821EC0E3
:101D90008B818130C9F4A9E5B0E0E9E5F0E080810C
:101DA0008F778C93A9E5B0E0E9E5F0E08081282FFA
:101DB0008C81882F90E09695982F88279795879506
:101DC000822B8C93198202C082E0898389812696B6
:101DD0000FB6F894DEBF0FBECDBFCF91DF9108954F
:101DE000DF93CF9300D000D000D0CDB7DEB78A8389
:101DF0006B834C8381E089838A81282F30E03E8386
:101E00002D838D819E818130910509F4CDC02D8176
:101E10003E812230310509F468C08D819E81009792
:101E200009F0C0C0A3E5B0E0E3E5F0E080818F7C7D
:101E30008C938C81882311F41982B6C08B818823FE
:101E400019F08B81813039F58C81813049F4A3E51B
:101E5000B0E0E3E5F0E0808180618C931982A4C05A
:101E60008C81823049F4A3E5B0E0E3E5F0E08081C5
:101E700080628C93198298C08C81833049F4A3E5E9
:101E8000B0E0E3E5F0E0808180638C9319828CC040
:101E900082E0898389C08B81823019F08B81833005
:101EA00009F58C81843019F08C81863049F4A3E5E2
:101EB000B0E0E3E5F0E0808180628C93198274C029
:101EC0008C81853019F08C81873049F4A3E5B0E02E
:101ED000E3E5F0E0808180638C93198265C082E045
:101EE000898362C082E089835FC0A5E4B0E0E5E455
:101EF000F0E080818F7C8C938C81882311F419828F
:101F000053C08B81882319F08B81813039F58C8106
:101F1000813049F4A5E4B0E0E5E4F0E0808180613F
:101F20008C93198241C08C81823049F4A5E4B0E0E1
:101F3000E5E4F0E0808180628C93198235C08C8169
:101F4000833049F4A5E4B0E0E5E4F0E0808180630B
:101F50008C93198229C082E0898326C08B818230CC
:101F600019F08B818330D9F48C81843049F4A5E455
:101F7000B0E0E5E4F0E0808180628C93198214C0C7
:101F80008C81853049F4A5E4B0E0E5E4F0E080819F
:101F900080638C93198208C082E0898305C082E047
:101FA000898302C082E08983898126960FB6F894DE
:101FB000DEBF0FBECDBFCF91DF910895DF93CF93EA
:101FC000CDB7DEB77894CF91DF910895DF93CF93AB
:101FD000CDB7DEB7F894CF91DF910895DF93CF931B
:101FE00000D0CDB7DEB781E08A83198219823BC069
:101FF0008981282F30E0C901880F991F820F931F14
:10200000FC01E159FE4F40818981282F30E0C90150
:10201000880F991F820F931FFC01E059FE4F90819A
:10202000842F692F0E94B3118981282F30E0C901C4
:10203000880F991F820F931FFC01E159FE4F4081C9
:102040008981282F30E0C901880F991F820F931FC3
:10205000FC01EF58FE4F9081842F692F0E942E12B1
:1020600089818F5F898390916E018981891708F436
:10207000BFCF1A828A810F900F90CF91DF91089580
:10208000DF93CF9300D00F92CDB7DEB78A836B83F7
:1020900081E089838A816B810E942E1289838981E4
:1020A0000F900F900F90CF91DF910895DF93CF9312
:1020B00000D00F92CDB7DEB78A836B8381E089832E
:1020C0008A816B810E94B311898389810F900F905F
:1020D0000F90CF91DF910895DF93CF9300D000D080
:1020E00000D0CDB7DEB78A837C836B8381E08983A0
:1020F0008B819C810097D1F18A81282F30E03E832B
:102100002D838D819E8181309105B1F02D813E819D
:1021100022303105E1F08D819E81009721F5EAE5BD
:10212000F0E0808182958695869583708170EB8141
:10213000FC81808319821CC0EAE5F0E08081881F61
:102140008827881FEB81FC818083198211C0EAE512
:10215000F0E080818295869587708170EB81FC81AB
:102160008083198205C082E0898302C083E089836D
:10217000898126960FB6F894DEBF0FBECDBFCF91F2
:10218000DF910895DF93CF9300D00F92CDB7DEB7E4
:102190008A836B8381E089838A816B810E94D51257
:1021A000898389810F900F900F90CF91DF910895CF
:1021B000DF93CF9300D000D000D0CDB7DEB78A83B5
:1021C0007C836B835E834D8381E089838B819C81DB
:1021D0000097D1F08A81882F90E02B813C81880F75
:1021E000991FFC01EC53FE4F318320838A81882F95
:1021F00090E0880F991FFC01E653FE4F8D819E8170
:1022000091838083198202C082E089838981269626
:102210000FB6F894DEBF0FBECDBFCF91DF9108950A
:102220001F920F920FB60F9211242F933F934F934B
:102230005F936F937F938F939F93AF93BF93EF932E
:10224000FF93DF93CF93CDB7DEB78091C401909118
:10225000C501009749F0E091C401F091C50180915A
:10226000CA019091CB010995CF91DF91FF91EF9138
:10227000BF91AF919F918F917F916F915F914F919E
:102280003F912F910F900FBE0F901F9018951F92A6
:102290000F920FB60F9211242F933F934F935F939A
:1022A0006F937F938F939F93AF93BF93EF93FF931E
:1022B000DF93CF93CDB7DEB78091C6019091C70170
:1022C000009749F0E091C601F091C7018091CC01DF
:1022D0009091CD010995CF91DF91FF91EF91BF9141
:1022E000AF919F918F917F916F915F914F913F91AE
:1022F0002F910F900FBE0F901F9018951F920F9265
:102300000FB60F9211242F933F934F935F936F93C8
:102310007F938F939F93AF93BF93EF93FF93DF933D
:10232000CF93CDB7DEB78091C8019091C9010097D6
:1023300039F0E091C801F091C90182E090E009957F
:10234000CF91DF91FF91EF91BF91AF919F918F91CD
:102350007F916F915F914F913F912F910F900FBEA1
:102360000F901F901895DF93CF9300D000D00F925D
:10237000CDB7DEB78A836B8381E089838A81282F7A
:1023800030E03D832C838C819D818130910529F142
:102390002C813D8122303105D9F18C819D810097BE
:1023A00009F051C08B81813049F4ABE5B0E0EBE539
:1023B000F0E0808180648C93198247C08B818823F0
:1023C00049F4ABE5B0E0EBE5F0E080818F7B8C93E6
:1023D00019823BC082E0898338C08B81813049F407
:1023E000ABE5B0E0EBE5F0E0808180688C9319828A
:1023F0002CC08B81882349F4ABE5B0E0EBE5F0E03D
:1024000080818F778C93198220C082E089831DC0E0
:102410008B81813049F4ABE5B0E0EBE5F0E0808101
:1024200080628C93198211C08B81882349F4ABE5BB
:10243000B0E0EBE5F0E080818F7D8C93198205C0E0
:1024400082E0898302C082E0898389810F900F90A6
:102450000F900F900F90CF91DF910895DF93CF935E
:1024600000D000D00F92CDB7DEB78A836B8381E0B6
:1024700089838A81282F30E03D832C838C819D8144
:1024800081309105E9F12C813D812230310509F43B
:1024900069C08C819D81009709F07CC0A5E5B0E002
:1024A000E5E5F0E080818C7F8C938B81882311F4AB
:1024B000198272C08B81813049F4A5E5B0E0E5E571
:1024C000F0E0808181608C93198266C08B818230BC
:1024D00041F4A5E5B0E0E5E5F0E0808182608C9311
:1024E0005BC08B81833049F4A5E5B0E0E5E5F0E021
:1024F000808183608C9319824FC082E089834CC0B5
:10250000A5E5B0E0E5E5F0E08081837F8C938B81E9
:10251000882311F4198240C08B81813049F4A5E5EC
:10252000B0E0E5E5F0E0808184608C93198234C0EE
:102530008B81823041F4A5E5B0E0E5E5F0E08081F3
:1025400088608C9329C08B81833049F4A5E5B0E085
:10255000E5E5F0E080818C608C9319821DC082E0FB
:1025600089831AC08B81823049F4A4E5B0E0E4E5A8
:10257000F0E080818F7B8C9319820EC08B81833039
:1025800059F4A4E5B0E0E4E5F0E0808180648C9348
:10259000198202C082E0898389810F900F900F9089
:1025A0000F900F90CF91DF910895DF93CF9300D0DC
:1025B00000D00F92CDB7DEB78A836B8381E0898329
:1025C0008A81282F30E03D832C838C819D8181304E
:1025D000910529F12C813D8122303105D9F18C8181
:1025E0009D81009709F051C08B81813049F4AAE5A3
:1025F000B0E0EAE5F0E0808180648C93198247C006
:102600008B81882349F4AAE5B0E0EAE5F0E0808117
:102610008F7B8C9319823BC082E0898338C08B8189
:10262000813049F4AAE5B0E0EAE5F0E08081806815
:102630008C9319822CC08B81882349F4AAE5B0E0E1
:10264000EAE5F0E080818F778C93198220C082E0E8
:1026500089831DC08B81813049F4AAE5B0E0EAE5A9
:10266000F0E0808180628C93198211C08B81882375
:1026700049F4AAE5B0E0EAE5F0E080818F7D8C9333
:10268000198205C082E0898302C082E08983898142
:102690000F900F900F900F900F90CF91DF910895B2
:1026A000DF93CF930F92CDB7DEB781E08983198294
:1026B00089810F90CF91DF910895DF93CF9300D060
:1026C00000D000D0CDB7DEB78A836B834C8381E026
:1026D00089838A81843008F0D0C08B81883008F0EB
:1026E000CCC08C81823008F0C8C08A81282F30E0AD
:1026F0003E832D836D817E816130710509F441C077
:102700008D819E818230910534F42D813E81211589
:10271000310571F0B0C06D817E816230710509F4C0
:1027200059C08D819E818330910509F47CC0A3C07E
:10273000AAE3B0E0EAE3F0E08081482F8B81282F04
:1027400030E081E090E002C0880F991F2A95E2F7FF
:10275000809584238C93AAE3B0E0EAE3F0E08081E3
:10276000482F8C81282F30E08B81882F90E0B90191
:1027700002C0660F771F8A95E2F7CB01842B8C93FA
:102780007AC0A7E3B0E0E7E3F0E08081482F8B81D7
:10279000282F30E081E090E002C0880F991F2A9531
:1027A000E2F7809584238C93A7E3B0E0E7E3F0E0C1
:1027B0008081482F8C81282F30E08B81882F90E0FA
:1027C000B90102C0660F771F8A95E2F7CB01842B0F
:1027D0008C9351C0A4E3B0E0E4E3F0E08081482FA3
:1027E0008B81282F30E081E090E002C0880F991F94
:1027F0002A95E2F7809584238C93A4E3B0E0E4E388
:10280000F0E08081482F8C81282F30E08B81882F49
:1028100090E0B90102C0660F771F8A95E2F7CB01FD
:10282000842B8C9328C0A1E3B0E0E1E3F0E0808149
:10283000482F8B81282F30E081E090E002C0880F84
:10284000991F2A95E2F7809584238C93A1E3B0E049
:10285000E1E3F0E08081482F8C81282F30E08B81EC
:10286000882F90E0B90102C0660F771F8A95E2F7C2
:10287000CB01842B8C93198202C082E089838981E9
:1028800026960FB6F894DEBF0FBECDBFCF91DF9175
:102890000895DF93CF9300D000D000D0CDB7DEB73E
:1028A0008A836B834C8381E089838A81843008F03A
:1028B000D0C08B81883008F0CCC08C81823008F089
:1028C000C8C08A81282F30E03E832D836D817E81B0
:1028D0006130710509F441C08D819E81823091057E
:1028E00034F42D813E812115310571F0B0C06D8128
:1028F0007E816230710509F459C08D819E818330DB
:10290000910509F47CC0A3C0ABE3B0E0EBE3F0E0D9
:102910008081482F8B81282F30E081E090E002C039
:10292000880F991F2A95E2F7809584238C93ABE357
:10293000B0E0EBE3F0E08081482F8C81282F30E07D
:102940008B81882F90E0B90102C0660F771F8A95AE
:10295000E2F7CB01842B8C937AC0A8E3B0E0E8E3E4
:10296000F0E08081482F8B81282F30E081E090E0DB
:1029700002C0880F991F2A95E2F7809584238C93D3
:10298000A8E3B0E0E8E3F0E08081482F8C81282FB5
:1029900030E08B81882F90E0B90102C0660F771F6D
:1029A0008A95E2F7CB01842B8C9351C0A5E3B0E06C
:1029B000E5E3F0E08081482F8B81282F30E081E033
:1029C00090E002C0880F991F2A95E2F78095842332
:1029D0008C93A5E3B0E0E5E3F0E08081482F8C81A3
:1029E000282F30E08B81882F90E0B90102C0660F5C
:1029F000771F8A95E2F7CB01842B8C9328C0A2E342
:102A0000B0E0E2E3F0E08081482F8B81282F30E0B6
:102A100081E090E002C0880F991F2A95E2F7809527
:102A200084238C93A2E3B0E0E2E3F0E08081482FBE
:102A30008C81282F30E08B81882F90E0B90102C073
:102A4000660F771F8A95E2F7CB01842B8C9319824E
:102A500002C082E08983898126960FB6F894DEBF92
:102A60000FBECDBFCF91DF910895DF93CF9300D0FC
:102A700000D000D0CDB7DEB78A836B834C8381E072
:102A800089838A81843008F0DBC08B81883008F02C
:102A9000D7C08C81823008F0D3C08A81282F30E0E3
:102AA0003E832D838D819E818130910509F443C041
:102AB0002D813E81223031052CF48D819E8100973D
:102AC00071F0BCC02D813E812230310509F45FC018
:102AD0008D819E818330910509F485C0AFC08C81C2
:102AE0008130A1F4ABE3B0E0EBE3F0E08081482F6C
:102AF0008B81282F30E081E090E0022E02C0880F09
:102B0000991F0A94E2F7842B8C9398C0ABE3B0E052
:102B1000EBE3F0E08081482F8B81282F30E081E0CB
:102B200090E0022E02C0880F991F0A94E2F7809568
:102B300084238C9383C08C818130A1F4A8E3B0E01E
:102B4000E8E3F0E08081482F8B81282F30E081E09E
:102B500090E0022E02C0880F991F0A94E2F7842B9E
:102B60008C936CC0A8E3B0E0E8E3F0E08081482FEC
:102B70008B81282F30E081E090E0022E02C0880F88
:102B8000991F0A94E2F7809584238C9357C08C8117
:102B90008130A1F4A5E3B0E0E5E3F0E08081482FC7
:102BA0008B81282F30E081E090E0022E02C0880F58
:102BB000991F0A94E2F7842B8C9340C0A5E3B0E000
:102BC000E5E3F0E08081482F8B81282F30E081E021
:102BD00090E0022E02C0880F991F0A94E2F78095B8
:102BE00084238C932BC08C818130A1F4A2E3B0E0CC
:102BF000E2E3F0E08081482F8B81282F30E081E0F4
:102C000090E0022E02C0880F991F0A94E2F7842BED
:102C10008C9314C0A2E3B0E0E2E3F0E08081482F9F
:102C20008B81282F30E081E090E0022E02C0880FD7
:102C3000991F0A94E2F7809584238C93198202C02D
:102C400082E08983898126960FB6F894DEBF0FBE95
:102C5000CDBFCF91DF910895DF93CF9300D000D007
:102C60000F92CDB7DEB78A836B8381E089838A8137
:102C7000843008F073C08B81883008F06FC08A817F
:102C8000282F30E03D832C838C819D8181309105FC
:102C900049F12C813D81223031052CF48C819D81BC
:102CA000009761F05AC02C813D812230310571F1CD
:102CB0008C819D8183309105E9F14FC0ABE3B0E099
:102CC000EBE3F0E08081482F8B81282F30E081E01A
:102CD00090E0022E02C0880F991F0A94E2F7842721
:102CE0008C933BC0A8E3B0E0E8E3F0E08081482F9C
:102CF0008B81282F30E081E090E0022E02C0880F07
:102D0000991F0A94E2F784278C9327C0A5E3B0E0CB
:102D1000E5E3F0E08081482F8B81282F30E081E0CF
:102D200090E0022E02C0880F991F0A94E2F78427D0
:102D30008C9313C0A2E3B0E0E2E3F0E08081482F7F
:102D40008B81282F30E081E090E0022E02C0880FB6
:102D5000991F0A94E2F784278C93198289810F9036
:102D60000F900F900F900F90CF91DF910895DF9308
:102D7000CF93CDB7DEB727970FB6F894DEBF0FBE5F
:102D8000CDBF8A836B835D834C8381E089838C8193
:102D90009D81009709F47DC08A81843008F076C057
:102DA0008B81883008F072C08A81282F30E03F8301
:102DB0002E834E815F814130510559F18E819F8173
:102DC0008230910534F42E813F812115310569F05F
:102DD0005BC04E815F814230510579F18E819F81C8
:102DE0008330910509F43DC04FC0E9E3F0E08081F4
:102DF000282F30E08B81882F90E0A90102C05595E3
:102E000047958A95E2F7CA018170EC81FD81808344
:102E10003BC0E6E3F0E08081282F30E08B81882FF3
:102E200090E0A90102C0559547958A95E2F7CA013D
:102E30008170EC81FD81808327C0E3E3F0E0808135
:102E4000282F30E08B81882F90E0A90102C0559592
:102E500047958A95E2F7CA018170EC81FD818083F4
:102E600013C0E0E3F0E08081282F30E08B81882FD1
:102E700090E0A90102C0559547958A95E2F7CA01ED
:102E80008170EC81FD818083198205C082E0898395
:102E900002C083E08983898127960FB6F894DEBF4C
:102EA0000FBECDBFCF91DF910895DF93CF930F92E7
:102EB000CDB7DEB781E08983A7E2B0E0E7E2F0E0DA
:102EC00080818F738C93A7E2B0E0E7E2F0E080812D
:102ED00081608C93A7E2B0E0E7E2F0E0808180625D
:102EE0008C93A0E5B0E0E0E5F0E080818F718C93F9
:102EF000A0E5B0E0E0E5F0E080818C93A6E2B0E0F0
:102F0000E6E2F0E0808180628C93A6E2B0E0E6E247
:102F1000F0E0808188608C93A6E2B0E0E6E2F0E029
:102F20008081887F8C93A6E2B0E0E6E2F0E08081C9
:102F300086608C93A7E2B0E0E7E2F0E08081807EDB
:102F40008C93A7E2B0E0E7E2F0E080818C93A6E208
:102F5000B0E0E6E2F0E0808180688C93198289819C
:102F60000F90CF91DF910895DF93CF9300D000D0E1
:102F7000CDB7DEB78A837C836B8381E089838A81C6
:102F8000803208F050C0A6E2B0E0E6E2F0E08081D6
:102F900080618C93A7E2B0E0E7E2F0E08081807E80
:102FA0008C93A7E2B0E0E7E2F0E090818A81892B80
:102FB0008C93A6E2B0E0E6E2F0E0808180648C933E
:102FC000E6E2F0E0808182958F70882F90E081703A
:102FD00090700097A9F3E4E2F0E0808182958695F5
:102FE00086958370882F90E0EB81FC8191838083AC
:102FF000EB81FC8120813181E5E2F0E08081882F46
:1030000090E0880F991F880F991F822B932BEB81DB
:10301000FC8191838083A6E2B0E0E6E2F0E080816B
:1030200080618C9302C082E08983198289810F902C
:103030000F900F900F90CF91DF910895DF93CF9372
:103040000F92CDB7DEB781E08983A6E2B0E0E6E279
:10305000F0E0808180648C93198289810F90CF91F8
:10306000DF910895DF93CF9300D0CDB7DEB78A8389
:1030700081E089838A81883049F4A6E2B0E0E6E203
:10308000F0E080818F7D8C93198228C08A818830FE
:1030900018F5A0E5B0E0E0E5F0E080818F7D8C934D
:1030A000A0E5B0E0E0E5F0E08081282F8A81882F5C
:1030B00090E0880F991F82959295907F9827807F46
:1030C0009827822B8C93A6E2B0E0E6E2F0E08081C4
:1030D00080628C93198202C082E0898389810F907B
:1030E0000F90CF91DF910895DF93CF9300D0CDB7AC
:1030F000DEB78A8381E089838A818823A1F08A816F
:10310000883088F4A6E2B0E0E6E2F0E08081887FD3
:103110008C93A6E2B0E0E6E2F0E090818A81892B10
:103120008C93198202C082E0898389810F900F906D
:10313000CF91DF910895DF93CF9300D00F92CDB759
:10314000DEB79B838A8381E089838A819B81009794
:1031500079F0E5E2F0E08081882F90E0880F991FF8
:10316000880F991FEA81FB8191838083198202C0B5
:1031700083E0898389810F900F900F90CF91DF9129
:103180000895DF93CF9300D00F92CDB7DEB79B8326
:103190008A8381E089838A819B81009711F019825B
:1031A00002C083E0898389810F900F900F90CF91A7
:1031B000DF910895DF93CF9300D00F92CDB7DEB7A4
:1031C0009B838A8381E089838A819B81009711F1A7
:1031D000E4E2F0E080818295869586958370882F61
:1031E00090E0EA81FB8191838083EA81FB812081E9
:1031F0003181E5E2F0E08081882F90E0880F991F0F
:10320000880F991F822B932BEA81FB819183808306
:10321000198202C083E0898389810F900F900F90FB
:10322000CF91DF910895DF93CF930F92CDB7DEB7A3
:1032300081E08983A6E2B0E0E6E2F0E08081886088
:103240008C93198289810F90CF91DF910895DF933C
:10325000CF930F92CDB7DEB781E08983A6E2B0E0CD
:10326000E6E2F0E08081877F8C93198289810F905C
:10327000CF91DF910895DF93CF930F92CDB7DEB753
:1032800081E08983A6E2B0E0E6E2F0E08081806838
:103290008C93198289810F90CF91DF910895DF93EC
:1032A000CF930F92CDB7DEB781E08983A6E2B0E07D
:1032B000E6E2F0E080818F778C93198289810F900C
:1032C000CF91DF910895DF93CF9300D000D00F927C
:1032D000CDB7DEB79B838A837D836C8381E089834E
:1032E0008A819B81009769F08A819B819093D101AB
:1032F0008093D0018C819D819093D3018093D201E2
:10330000198289810F900F900F900F900F90CF919D
:10331000DF9108951F920F920FB60F9211242F93F1
:103320003F934F935F936F937F938F939F93AF934D
:10333000BF93EF93FF93DF93CF93CDB7DEB7809129
:10334000D0019091D101009749F0E091D001F09126
:10335000D1018091D2019091D3010995CF91DF9154
:10336000FF91EF91BF91AF919F918F917F916F915D
:103370005F914F913F912F910F900FBE0F901F9033
:103380001895DF93CF9300D000D0CDB7DEB71A8267
:103390001B8281E08C83198253C08981282F30E001
:1033A000C901880F991F820F931FFC01ED58FE4F32
:1033B00040818981282F30E0C901880F991F820F31
:1033C000931FFC01EC58FE4F9081842F692F40E041
:1033D0000E945D138B838981282F30E0C901880FFB
:1033E000991F820F931FFC01ED58FE4F5081898178
:1033F000282F30E0C901880F991F820F931FFC010D
:10340000EC58FE4F40818981282F30E0C901880F98
:10341000991F820F931FFC01EB58FE4F9081852F5F
:10342000642F492F0E9449148C838B81813019F0BD
:103430008C81813011F481E08A8389818F5F898357
:10344000909172018981891708F4A7CF8A810F9022
:103450000F900F900F90CF91DF910895DF93CF934E
:1034600000D000D0CDB7DEB78A837C836B8381E048
:1034700089838B819C81009749F1909172018A81A7
:10348000981708F18A81282F30E0C901880F991F09
:10349000820F931FFC01ED58FE4F40818A81282F37
:1034A00030E0C901880F991F820F931FFC01EC586F
:1034B000FE4F90812B813C81842F692FA9010E94AE
:1034C000B716898305C082E0898302C083E08983BF
:1034D00089810F900F900F900F90CF91DF910895F9
:1034E000DF93CF9300D0CDB7DEB781E08A83198216
:1034F000198231C08981882F90E0880F991FFC01C3
:10350000E958FE4F20818981882F90E0880F991F0C
:10351000FC01E858FE4F9081822F692F41E00E9404
:103520005D138981882F90E0880F991FFC01E9586D
:10353000FE4F20818981882F90E0880F991FFC0120
:10354000E858FE4F9081822F692F40E00E94351588
:1035500089818F5F8983909176018981891750F2E3
:103560001A828A810F900F90CF91DF910895DF9397
:10357000CF9300D0CDB7DEB78A8381E08983909165
:1035800076018A818917C8F48A81882F90E0880F94
:10359000991FFC01E958FE4F20818A81882F90E015
:1035A000880F991FFC01E858FE4F9081822F692FE8
:1035B00041E00E943515898302C082E089838981B8
:1035C0000F900F90CF91DF910895DF93CF9300D0AC
:1035D000CDB7DEB78A8381E08983909176018A81B5
:1035E0008917C8F48A81882F90E0880F991FFC0101
:1035F000E958FE4F20818A81882F90E0880F991F1B
:10360000FC01E858FE4F9081822F692F40E00E9414
:103610003515898302C082E0898389810F900F90DC
:10362000CF91DF910895DF93CF9300D0CDB7DEB770
:1036300081E08A83198219821AC08981882F90E0DB
:10364000880F991FFC01E958FE4F20818981882F3E
:1036500090E0880F991FFC01E858FE4F9081822F5F
:10366000692F41E00E94351589818F5F8983909190
:1036700076018981891708F382E08A838A810F9015
:103680000F90CF91DF910895DF93CF9300D0CDB706
:10369000DEB781E08A83198219821AC08981882F56
:1036A00090E0880F991FFC01E958FE4F2081898125
:1036B000882F90E0880F991FFC01E858FE4F9081F9
:1036C000822F692F40E00E94351589818F5F8983A1
:1036D000909176018981891708F38A810F900F9064
:1036E000CF91DF910895DF93CF9300D0CDB7DEB7B0
:1036F00081E08A831982198231C08981882F90E004
:10370000880F991FFC01E658FE4F20818981882F80
:1037100090E0880F991FFC01E558FE4F9081822FA1
:10372000692F41E00E945D138981882F90E0880F06
:10373000991FFC01E658FE4F20818981882F90E077
:10374000880F991FFC01E558FE4F9081822F692F49
:1037500040E00E94351589818F5F898390917901BE
:103760008981891750F21A828A810F900F90CF9128
:10377000DF910895DF93CF9300D0CDB7DEB78A8372
:1037800081E08983909179018A818917C8F48A81BF
:10379000882F90E0880F991FFC01E658FE4F20818A
:1037A0008A81882F90E0880F991FFC01E558FE4F11
:1037B0009081822F692F41E00E943515898302C0D4
:1037C00082E0898389810F900F90CF91DF910895D6
:1037D000DF93CF9300D0CDB7DEB78A8381E08983B2
:1037E000909179018A819817C8F08A81882F90E09A
:1037F000880F991FFC01E658FE4F20818A81882F8F
:1038000090E0880F991FFC01E558FE4F9081822FB0
:10381000692F40E00E943515898302C082E08983C8
:1038200089810F900F90CF91DF910895DF93CF930F
:1038300000D0CDB7DEB781E08A83198219821AC021
:103840008981882F90E0880F991FFC01E658FE4F70
:1038500020818981882F90E0880F991FFC01E5580D
:10386000FE4F9081822F692F41E00E94351589819A
:103870008F5F8983909179018981891708F31A8272
:103880008A810F900F90CF91DF910895DF93CF93AE
:1038900000D0CDB7DEB781E08A83198219821AC0C1
:1038A0008981882F90E0880F991FFC01E658FE4F10
:1038B00020818981882F90E0880F991FFC01E558AD
:1038C000FE4F9081822F692F40E00E94351589813B
:1038D0008F5F8983909179018981891708F31A8212
:1038E0008A810F900F90CF91DF910895DF93CF934E
:1038F000CDB7DEB76D970FB6F894DEBF0FBECDBF64
:1039000081E08D8F80E090E0ACE0B2E4898F9A8F07
:10391000AB8FBC8F698D7A8D8B8D9C8D20E030E0D4
:103920004AE755E40E941F02DC01CB018D8B9E8B80
:10393000AF8BB88F6D897E898F89988D20E030E0BC
:1039400040E85FE30E94A90388232CF481E090E023
:103950009C8B8B8B3FC06D897E898F89988D20E0F1
:103960003FEF4FE757E40E94490318164CF5698D65
:103970007A8D8B8D9C8D20E030E040E251E40E94F6
:103980001F02DC01CB01BC01CD010E944900DC011A
:10399000CB019C8B8B8B0FC080E991E09A8B898B3C
:1039A00089899A890197F1F79A8B898B8B899C89F0
:1039B00001979C8B8B8B8B899C89009769F714C02E
:1039C0006D897E898F89988D0E944900DC01CB0129
:1039D0009C8B8B8B8B899C89988B8F878F85988903
:1039E0000197F1F7988B8F8781E061E041E00E94B9
:1039F0005D1381E062E041E00E945D1381E063E0DD
:103A000041E00E945D1380E067E041E00E945D13A9
:103A100080E066E041E00E945D1380E065E041E007
:103A20000E945D1380E064E041E00E945D1381E04C
:103A300061E040E00E94351580E067E040E00E94D0
:103A4000351580E066E040E00E94351580E065E0D5
:103A500041E00E94351580E064E040E00E943515A9
:103A600081E063E041E00E94351580E090E0A0E84D
:103A7000BFE38B879C87AD87BE876B857C858D85F3
:103A80009E8520E030E04AE755E40E941F02DC01F9
:103A9000CB018F839887A987BA876F8178858985BD
:103AA0009A8520E030E040E85FE30E94A903882384
:103AB0002CF481E090E09E838D833FC06F817885F8
:103AC00089859A8520E03FEF4FE757E40E9449033C
:103AD00018164CF56B857C858D859E8520E030E041
:103AE00040E251E40E941F02DC01CB01BC01CD0188
:103AF0000E944900DC01CB019E838D830FC080E9C9
:103B000091E09C838B838B819C810197F1F79C834F
:103B10008B838D819E8101979E838D838D819E8174
:103B2000009769F714C06F81788589859A850E940E
:103B30004900DC01CB019E838D838D819E819A8318
:103B4000898389819A810197F1F79A83898381E03A
:103B500063E040E00E94351581E061E040E00E94B2
:103B6000351588E20E94642281E061E040E00E9415
:103B700035158FE00E94642281E061E040E00E9400
:103B8000351581E00E94642281E061E040E00E94FE
:103B9000351586E00E9464221D8E8D8D6D960FB6C0
:103BA000F894DEBF0FBECDBFCF91DF910895DF93B4
:103BB000CF9300D0CDB7DEB78A8381E0898381E0DF
:103BC00061E040E00E9435158A810E9464221982DA
:103BD00089810F900F90CF91DF910895DF93CF935C
:103BE00000D0CDB7DEB78A8381E0898381E061E0D0
:103BF00041E00E9435158A810E94642219828981E0
:103C00000F900F90CF91DF910895DF93CF9300D065
:103C100000D0CDB7DEB78A836B834C8381E0898384
:103C20008B81813188F58B81882371F18A81833082
:103C300058F58A81882341F18C81853028F58C8163
:103C4000882311F181E061E040E00E9435158C810C
:103C5000882F90E09C01215030408A81882F90E08D
:103C60000197880F991F880F991F820F931F8295C4
:103C70009295907F9827807F9827982F8B81890F26
:103C800081580E94642202C082E0898389810F905A
:103C90000F900F900F90CF91DF910895DF93CF9306
:103CA00000D00F92CDB7DEB79B838A8381E08983F2
:103CB0008A819B810097C1F010C081E061E041E002
:103CC0000E943515EA81FB8120818A819B810196C2
:103CD0009B838A83822F0E946422EA81FB818081F8
:103CE000882359F7198202C083E0898389810F9064
:103CF0000F900F90CF91DF910895DF93CF9300D075
:103D00000F92CDB7DEB78B8381E08A838B818823C6
:103D100009F449C08B81853008F045C0198281E0E3
:103D200061E040E00E9435158B81882F90E0079676
:103D300082959295907F9827807F98270E94642291
:103D400081E061E041E00E943515198206C080E201
:103D50000E94642289818F5F898389818031B8F3D1
:103D600081E061E040E00E9435158B81882F90E072
:103D70000B9682959295907F9827807F98270E9436
:103D8000642281E061E041E00E943515198206C09D
:103D900080E20E94642289818F5F898389818031DA
:103DA000B8F31A8202C082E08A838A810F900F9052
:103DB0000F90CF91DF910895CF92EF920F93DF9301
:103DC000CF93CDB7DEB72E970FB6F894DEBF0FBEF8
:103DD000CDBF9E838D836F83488729870A87EB86B3
:103DE000CC8681E08C838D819E81009709F4B3C0DD
:103DF0001B821A8219828F81882309F4A9C08F81BE
:103E0000893008F0A5C08885883008F0A1C0888571
:103E1000282F30E088E090E0AC01421B530B9A0160
:103E20008F81882F90E0281739070CF491C089857D
:103E3000882309F48DC08985833008F089C08A857C
:103E4000882309F485C08A85813108F081C08C857A
:103E5000823008F07DC08B85853008F079C01982EA
:103E600019C08981282F30E08D819E81820F931F98
:103E70009B838A838981982F9695969596958885B8
:103E8000292F280F8A819B81622F0E9441248981DA
:103E9000885F89838981282F30E08F81882F90E087
:103EA000880F991F880F991F880F991F28173907A6
:103EB000C4F281E061E040E00E9435158C85282F36
:103EC00030E03E872D874D855E854115510549F0CF
:103ED0008D859E858130910539F486E00E946422AB
:103EE00003C084E00E94642281E061E040E00E941F
:103EF00035158B85882F90E09C01215030408985B5
:103F0000882F90E00197880F991F880F991F820FC3
:103F1000931F82959295907F9827807F9827982F5E
:103F20008A85890F81580E94642281E061E041E026
:103F30000E943515198206C089810E9464228981F8
:103F40008F5F898399818F819817B0F31C8205C098
:103F500082E08C8302C083E08C838C812E960FB626
:103F6000F894DEBF0FBECDBFCF91DF910F91EF90E0
:103F7000CF9008950F93DF93CF93CDB7DEB72E97F1
:103F80000FB6F894DEBF0FBECDBF688779878A87EA
:103F90009B874C872D870E8781E08B831A8219823D
:103FA00088859985AA85BB85BB238CF481E08983AC
:103FB00088859985AA85BB85B095A09590958195B2
:103FC0009F4FAF4FBF4F88879987AA87BB87888548
:103FD0009985AA85BB858C839D83AE83BF838A81A7
:103FE0008F5F8A838C819D81AE81BF812AE030E022
:103FF00040E050E0BC01CD010E94E529DA01C90191
:104000008C839D83AE83BF838C819D81AE81BF8174
:104010000097A105B10519F78C85882309F487C09D
:104020008C85833008F083C08D85882309F47FC098
:104030008D85813108F07BC08E85853008F077C092
:104040008A81813108F073C088859985AA85BB85EE
:104050008C839D83AE83BF83CE0104960E9402258C
:1040600081E061E040E00E9435158E85882F90E068
:104070009C01215030408C85882F90E00197880F5B
:10408000991F880F991F820F931F82959295907F99
:104090009827807F9827982F8D85890F81580E94B7
:1040A000642281E061E041E00E9435158981882326
:1040B00051F18DE20E94642226C08C819D81AE81E7
:1040C000BF812AE030E040E050E0BC01CD010E9419
:1040D000E529DC01CB01805D0E9464228C819D81F9
:1040E000AE81BF812AE030E040E050E0BC01CD016C
:1040F0000E94E529DA01C9018C839D83AE83BF83C9
:104100008A8181508A838C819D81AE81BF81009795
:10411000A105B10591F606C080E30E9464228A8160
:1041200081508A838A818823B9F71B8202C082E08A
:104130008B838B812E960FB6F894DEBF0FBECDBF5A
:10414000CF91DF910F9108950F93DF93CF93CDB768
:10415000DEB763970FB6F894DEBF0FBECDBF6D8795
:104160007E878F87988B498B2A8B0B8B81E0888782
:104170001B821A8219826D857E858F85988920E041
:1041800030E040E050E00E94A90388235CF481E025
:1041900089838D859E85AF85B889B0588D879E8728
:1041A000AF87B88B6D857E858F8598890E94490081
:1041B000DC01CB0189879A87AB87BC8789859A8583
:1041C000AB85BC85BC01CD010E945D049B01AC01A7
:1041D0006D857E858F8598890E94C101DC01CB01A8
:1041E0008C839D83AE83BF838B818F5F8B83898517
:1041F0009A85AB85BC852AE030E040E050E0BC0108
:10420000CD010E94C329DA01C90189879A87AB874A
:10421000BC8789859A85AB85BC850097A105B105CA
:1042200019F781E061E041E00E94351519861A8690
:104230001B861C861FC06C817D818E819F8120E042
:1042400030E040E251E40E941F02DC01CB018C838C
:104250009D83AE83BF836C817D818E819F810E940F
:104260004900DC01CB0189879A87AB87BC878A81AB
:104270008F5F8A8389859A85AB85BC85BC01CD011A
:104280000E945D049B01AC016C817D818E819F81C8
:104290000E94C101DC01CB01BC01CD012CEA35EC4F
:1042A00047E257E30E94790388232CF68989882303
:1042B00009F4FDC08989833008F0F9C08A89882310
:1042C00009F4F5C08A89813108F0F1C08B89853005
:1042D00008F0EDC08A81282F30E040E050E0898569
:1042E0009A85AB85BC85820F931FA41FB51F8131B2
:1042F0009105A105B10508F0DAC081E061E040E078
:104300000E9435158B89882F90E09C012150304008
:104310008989882F90E00197880F991F880F991F2E
:10432000820F931F82959295907F9827807F982780
:10433000982F8A89890F81580E94642281E061E068
:1043400041E00E9435158981882319F08DE20E9491
:1043500064226D857E858F8598890E944900DC01E5
:10436000CB0189879A87AB87BC87CE0109960E94CB
:10437000022581E061E041E00E94351526C0898573
:104380009A85AB85BC852AE030E040E050E0BC0176
:10439000CD010E94C329DC01CB01805D0E94642213
:1043A00089859A85AB85BC852AE030E040E050E005
:1043B000BC01CD010E94C329DA01C90189879A870E
:1043C000AB87BC878B8181508B8389859A85AB8530
:1043D000BC850097A105B10591F606C080E30E9457
:1043E00064228B8181508B838B818823B9F76C8108
:1043F0007D818E819F8120E030E040E050E00E948E
:104400001903882309F451C081E061E041E00E9472
:1044100035158EE20E9464226C817D818E819F81A0
:104420000E944900DC01CB0189879A87AB87BC8752
:10443000CE0109960E94022526C089859A85AB8502
:10444000BC852AE030E040E050E0BC01CD010E9494
:10445000C329DC01CB01805D0E94642289859A8595
:10446000AB85BC852AE030E040E050E0BC01CD01E6
:104470000E94C329DA01C90189879A87AB87BC8763
:104480008A8181508A8389859A85AB85BC8500970E
:10449000A105B10591F606C080E30E9464228A81DD
:1044A00081508A838A818823B9F7188602C082E006
:1044B0008887888563960FB6F894DEBF0FBECDBFA0
:1044C000CF91DF910F910895DF93CF93CDB7DEB7F2
:1044D000AC970FB6F894DEBF0FBECDBF8CA781E0BE
:1044E0008BA781E062E040E00E94351581E063E047
:1044F00040E00E9435158CA5982F991F9927991F88
:1045000080E067E0492F0E9435158CA5829586953D
:1045100086958370982F917080E066E0492F0E9405
:1045200035158CA5829586958770982F917080E0BF
:1045300065E0492F0E9435158CA582958F70982FC4
:10454000917080E064E0492F0E94351581E063E0BE
:1045500041E00E94351580E090E0A0E8BFE38FA322
:1045600098A7A9A7BAA76FA178A589A59AA520E0C1
:1045700030E04AE755E40E941F02DC01CB018BA327
:104580009CA3ADA3BEA36BA17CA18DA19EA120E0A5
:1045900030E040E85FE30E94A90388232CF481E027
:1045A00090E09AA389A33FC06BA17CA18DA19EA19D
:1045B00020E03FEF4FE757E40E94490318164CF5FF
:1045C0006FA178A589A59AA520E030E040E251E4EA
:1045D0000E941F02DC01CB01BC01CD010E944900F9
:1045E000DC01CB019AA389A30FC080E991E098A3D5
:1045F0008F8F8F8D98A10197F1F798A38F8F89A145
:104600009AA101979AA389A389A19AA1009769F712
:1046100014C06BA17CA18DA19EA10E944900DC0168
:10462000CB019AA389A389A19AA19E8F8D8F8D8D8D
:104630009E8D0197F1F79E8F8D8F81E063E040E0C2
:104640000E9435158CA5869586958695982F917034
:1046500080E067E0492F0E9435158CA586958695E8
:10466000982F917080E066E0492F0E9435158CA547
:104670008695982F917080E065E0492F0E9435154E
:104680008CA5982F917080E064E0492F0E94351529
:1046900081E063E041E00E94351580E090E0A0E811
:1046A000BFE3898F9A8FAB8FBC8F698D7A8D8B8D8D
:1046B0009C8D20E030E04AE755E40E941F02DC01B7
:1046C000CB018D8B9E8BAF8BB88F6D897E898F8947
:1046D000988D20E030E040E85FE30E94A903882342
:1046E0002CF481E090E09C8B8B8B3FC06D897E89A0
:1046F0008F89988D20E03FEF4FE757E40E944903F0
:1047000018164CF5698D7A8D8B8D9C8D20E030E0EC
:1047100040E251E40E941F02DC01CB01BC01CD014B
:104720000E944900DC01CB019C8B8B8B0FC080E980
:1047300091E09A8B898B89899A890197F1F79A8BF5
:10474000898B8B899C8901979C8B8B8B8B899C890E
:10475000009769F714C06D897E898F89988D0E94B2
:104760004900DC01CB019C8B8B8B8B899C89988BBE
:104770008F878F8598890197F1F7988B8F8781E0D4
:1047800063E040E00E94351580E090E0A0E0B0E4F6
:104790008B879C87AD87BE876B857C858D859E8545
:1047A00020E030E04AE755E40E941F02DC01CB0123
:1047B0008F839887A987BA876F81788589859A853D
:1047C00020E030E040E85FE30E94A90388232CF456
:1047D00081E090E09E838D833FC06F8178858985DD
:1047E0009A8520E03FEF4FE757E40E9449031816EF
:1047F0004CF56B857C858D859E8520E030E040E220
:1048000051E40E941F02DC01CB01BC01CD010E94DA
:104810004900DC01CB019E838D830FC080E991E0CC
:104820009C838B838B819C810197F1F79C838B8385
:104830008D819E8101979E838D838D819E810097BE
:1048400069F714C06F81788589859A850E9449002F
:10485000DC01CB019E838D838D819E819A83898328
:1048600089819A810197F1F79A8389831BA68BA589
:10487000AC960FB6F894DEBF0FBECDBFCF91DF91DF
:104880000895DF93CF93CDB7DEB727970FB6F8948F
:10489000DEBF0FBECDBF9C838B836D8381E08A8397
:1048A0008B819C81009709F479C08D81883008F054
:1048B00072C0198281E061E040E00E9435158D816F
:1048C000282F30E03F832E838E819F818330910596
:1048D000A9F12E813F81243031057CF48E819F81A6
:1048E0008130910519F12E813F812230310514F577
:1048F0008E819F810097B1F034C02E813F81253099
:10490000310521F18E819F8185309105DCF02E816A
:104910003F8126303105F1F08E819F8187309105EE
:10492000E9F01FC080E40E9464221BC088E40E945A
:10493000642217C080E50E94642213C088E50E94AB
:1049400064220FC080E60E9464220BC088E60E94A9
:10495000642207C080E70E94642203C088E70E94A7
:10496000642281E061E041E00E94351519820EC0A9
:104970008981282F30E08B819C81FC01E20FF31F9D
:1049800080810E94642289818F5F89838981883038
:1049900078F31A8205C082E08A8302C083E08A83AA
:1049A0008A8127960FB6F894DEBF0FBECDBFCF9198
:1049B000DF910895DF93CF9300D00F92CDB7DEB78C
:1049C0009B838A8381E089838A819B81009789F018
:1049D000EA81FB8180818A3048F4EA81FB81808111
:1049E000805DEA81FB818083198205C082E0898332
:1049F00002C083E0898389810F900F900F90CF913F
:104A0000DF910895EF92FF920F931F93DF93CF935F
:104A1000CDB7DEB727970FB6F894DEBF0FBECDBF78
:104A20009F838E831D828E819F81009709F458C0D9
:104A300019821A821B821C823CC089819A81AB81B7
:104A4000BC812AE030E040E050E0BC01CD010E9492
:104A5000A4297B018C01EE81FF8180819181A2815B
:104A6000B3812AE030E040E050E0BC01CD010E947B
:104A7000C329DC01CB018E0D9F1DA01FB11F8983AF
:104A80009A83AB83BC83EE81FF8180819181A28177
:104A9000B3812AE030E040E050E0BC01CD010E944B
:104AA000C329DA01C901EE81FF8180839183A2834A
:104AB000B383EE81FF8180819181A281B3810097D0
:104AC000A105B10509F0B9CFEE81FF8189819A81F5
:104AD000AB81BC8180839183A283B3831D8202C09A
:104AE00083E08D838D8127960FB6F894DEBF0FBECD
:104AF000CDBFCF91DF911F910F91FF90EF9008955F
:104B0000DF93CF9300D0CDB7DEB781E08A831982DF
:104B1000198231C08981882F90E0880F991FFC018C
:104B2000E058FE4F20818981882F90E0880F991FDF
:104B3000FC01EF57FE4F9081822F692F40E00E94C9
:104B40005D138981882F90E0880F991FFC01E05840
:104B5000FE4F20818981882F90E0880F991FFC01EA
:104B6000EF57FE4F9081822F692F41E00E94491438
:104B700089818F5F89838981843060F2198231C095
:104B80008981882F90E0880F991FFC01E857FE4F1C
:104B900020818981882F90E0880F991FFC01E757B9
:104BA000FE4F9081822F692F41E00E945D13898121
:104BB000882F90E0880F991FFC01E857FE4F208155
:104BC0008981882F90E0880F991FFC01E757FE4FDD
:104BD0009081822F692F40E00E94491489818F5F64
:104BE00089838981843060F21A828A810F900F90C4
:104BF000CF91DF910895DF93CF93CDB7DEB7AA971A
:104C00000FB6F894DEBF0FBECDBF9DA38CA381E08D
:104C10008A8B8CA19DA1009709F468C1198A188A12
:104C20001F86ECA1FDA18FEF8083198A5AC1898963
:104C3000882F90E0880F991FFC01E058FE4F4081BB
:104C40008989882F90E0880F991FFC01EF57FE4F4C
:104C500090819E012D5E3F4F842F692FA9010E94F4
:104C6000B7168B89882309F036C180E090E0A0E474
:104C7000B0E48B879C87AD87BE876B857C858D85EF
:104C80009E8520E030E04AE755E40E941F02DC01E7
:104C9000CB018F839887A987BA876F8178858985AB
:104CA0009A8520E030E040E85FE30E94A903882372
:104CB0002CF481E090E09E838D833FC06F817885E6
:104CC00089859A8520E03FEF4FE757E40E9449032A
:104CD00018164CF56B857C858D859E8520E030E02F
:104CE00040E251E40E941F02DC01CB01BC01CD0176
:104CF0000E944900DC01CB019E838D830FC080E9B7
:104D000091E09C838B838B819C810197F1F79C833D
:104D10008B838D819E8101979E838D838D819E8162
:104D2000009769F714C06F81788589859A850E94FC
:104D30004900DC01CB019E838D838D819E819A8306
:104D4000898389819A810197F1F79A838983898977
:104D5000882F90E0880F991FFC01E058FE4F40819A
:104D60008989882F90E0880F991FFC01EF57FE4F2B
:104D700090819E012D5E3F4F842F692FA9010E94D3
:104D8000B7168B89882309F0A6C0188AA0C0888925
:104D9000882F90E0880F991FFC01E857FE4F208173
:104DA0008889882F90E0880F991FFC01E757FE4FF4
:104DB0009081822F692F41E00E9435158989882FC3
:104DC00090E0880F991FFC01E058FE4F40818989CF
:104DD000882F90E0880F991FFC01EF57FE4F9081BC
:104DE0009E012D5E3F4F842F692FA9010E94B716A7
:104DF0008B89813009F051C0CE0144969FA38EA3C8
:104E0000E3E9F1E0F9A7E8A7F0E1FAA7E8A5F9A539
:104E1000008088A599A5019699A788A7EEA1FFA172
:104E200000828EA19FA101969FA38EA39AA5915067
:104E30009AA7EAA5EE2351F78989282F30E08889BF
:104E4000482F50E0220F331F220F331FCE0101964F
:104E5000820F931F840F951FFC0173968081ECA134
:104E6000FDA1808381E08F871A8A8889882F90E04E
:104E7000880F991FFC01E857FE4F20818889882FF1
:104E800090E0880F991FFC01E757FE4F9081822F19
:104E9000692F40E00E9435151EC08889882F90E058
:104EA000880F991FFC01E857FE4F20818889882FC1
:104EB00090E0880F991FFC01E757FE4F9081822FE9
:104EC000692F40E00E94351588898F5F888B88891B
:104ED000843008F45CCF8F85882351F489898F5FF3
:104EE000898B8989843008F4A2CE02C083E08A8B42
:104EF0008A89AA960FB6F894DEBF0FBECDBFCF91B8
:104F0000DF910895DF93CF930F92CDB7DEB781E0A5
:104F1000898380E064E041E00E945D1380E065E009
:104F200041E00E945D1380E066E041E00E945D1375
:104F300080E067E041E00E945D1381E062E041E0D3
:104F40000E945D1381E061E041E00E945D131982DF
:104F500089810F90CF91DF910895DF93CF9300D097
:104F6000CDB7DEB78A8381E089838A818A3040F5B4
:104F70008A81982F917080E064E0492F0E94351556
:104F80008A818695982F917080E065E0492F0E9474
:104F900035158A8186958695982F917080E066E018
:104FA000492F0E9435158A81869586958695982F7A
:104FB000917080E067E0492F0E943515198202C088
:104FC00082E0898389810F900F90CF91DF910895BE
:104FD000DF93CF9300D000D0CDB7DEB78A8381E0D6
:104FE00089838A81282F30E03C832B838B819C81AD
:104FF000009731F02B813C812130310541F00EC00A
:1050000081E062E041E00E943515198209C081E02B
:1050100061E041E00E943515198202C082E0898377
:1050200089810F900F900F900F90CF91DF9108958D
:10503000DF93CF9300D000D0CDB7DEB78A8381E075
:1050400089838A81282F30E03C832B838B819C814C
:10505000009731F02B813C812130310541F00EC0A9
:1050600081E062E040E00E943515198209C081E0CC
:1050700061E040E00E943515198202C082E0898318
:1050800089810F900F900F900F90CF91DF9108952D
:10509000DF93CF930F92CDB7DEB781E0898381E0B4
:1050A00062E040E00E94351581E061E040E00E944E
:1050B000351589810F90CF91DF910895DF93CF93BC
:1050C00000D0CDB7DEB781E08A831982198231C062
:1050D0008981882F90E0880F991FFC01EF56FE4FC1
:1050E00020818981882F90E0880F991FFC01EE565E
:1050F000FE4F9081822F692F41E00E945D138981CC
:10510000882F90E0880F991FFC01EF56FE4F2081F9
:105110008981882F90E0880F991FFC01EE56FE4F81
:105120009081822F692F40E00E94351589818F5F21
:105130008983909190018981891750F21A828A811E
:105140000F900F90CF91DF910895DF93CF9300D010
:10515000CDB7DEB78A8381E08983909190018A81FF
:105160008917C8F48A81882F90E0880F991FFC0165
:10517000EF56FE4F20818A81882F90E0880F991F7B
:10518000FC01EE56FE4F9081822F692F41E00E9474
:105190003515898302C082E0898389810F900F9041
:1051A000CF91DF910895DF93CF9300D0CDB7DEB7D5
:1051B0008A8381E08983909190018A818917C8F45C
:1051C0008A81882F90E0880F991FFC01EF56FE4FCF
:1051D00020818A81882F90E0880F991FFC01EE566C
:1051E000FE4F9081822F692F40E00E943515898300
:1051F00002C082E0898389810F900F90CF91DF9167
:105200000895DF93CF9300D0CDB7DEB781E08A83D6
:10521000198219821AC08981882F90E0880F991FFE
:10522000FC01EF56FE4F20818981882F90E0880F86
:10523000991FFC01EE56FE4F9081822F692F41E0AD
:105240000E94351589818F5F8983909190018981B2
:10525000891708F382E08A838A810F900F90CF919B
:10526000DF910895DF93CF9300D0CDB7DEB781E013
:105270008A83198219821AC08981882F90E0880F49
:10528000991FFC01EF56FE4F20818981882F90E005
:10529000880F991FFC01EE56FE4F9081822F692FD7
:1052A00040E00E94351589818F5F8983909190013C
:1052B0008981891708F38A810F900F90CF91DF9130
:1052C00008950F931F93DF93CF9300D0CDB7DEB730
:1052D00081E063E041E00E945D1381E063E040E033
:1052E0000E94351581E065E041E00E945D1381E098
:1052F00065E040E00E94351581E066E041E00E94F3
:105300005D1381E066E040E00E9435150E94CB0607
:105310008A8380E063E044E00DEC1CEC2CEC3DE380
:105320000E94680889838A81882329F481E065E0E6
:1053300041E00E94351589818823A9F781E066E064
:1053400041E00E943515EFCF629FD001739FF001BD
:10535000829FE00DF11D649FE00DF11D929FF00D05
:10536000839FF00D749FF00D659FF00D9927729F3C
:10537000B00DE11DF91F639FB00DE11DF91FBD01C7
:10538000CF0111240895A1E21A2EAA1BBB1BFD0117
:105390000DC0AA1FBB1FEE1FFF1FA217B307E40714
:1053A000F50720F0A21BB30BE40BF50B661F771F6C
:1053B000881F991F1A9469F760957095809590954C
:1053C0009B01AC01BD01CF01089597FB092E052675
:1053D0000ED057FD04D0D7DF0AD0001C38F450950A
:1053E0004095309521953F4F4F4F5F4F0895F6F709
:1053F00090958095709561957F4F8F4F9F4F089541
:105400002F923F924F925F926F927F928F929F92D4
:10541000AF92BF92CF92DF92EF92FF920F931F93C2
:10542000CF93DF93CDB7DEB7CA1BDB0B0FB6F89473
:10543000DEBF0FBECDBF09942A88398848885F84B3
:105440006E847D848C849B84AA84B984C884DF8024
:10545000EE80FD800C811B81AA81B981CE0FD11D08
:105460000FB6F894DEBF0FBECDBFED010895F894DE
:02547000FFCF6C
:105472000000000000000000000102020303030319
:1054820004040404040404040505050505050505D2
:1054920005050505050505050606060606060606B2
:1054A200060606060606060606060606060606069A
:1054B2000606060606060606070707070707070782
:1054C200070707070707070707070707070707076A
:1054D200070707070707070707070707070707075A
:1054E200070707070707070707070707070707074A
:1054F2000707070707070707080808080808080832
:105502000808080808080808080808080808080819
:105512000808080808080808080808080808080809
:1055220008080808080808080808080808080808F9
:1055320008080808080808080808080808080808E9
:1055420008080808080808080808080808080808D9
:1055520008080808080808080808080808080808C9
:1055620008080808080808080808080808080808B9
:1055720008080808080808080100030400040100DC
:1055820001030101000001030303030203010300FD
:1055920002000201020202030204020502060207DD
:1055A2000103043738392F343536783132332D43FD
:0455B20030232B0077
:00000001FF
