:100000000C942A000C9412180C9449180C94801823
:100010000C94EA110C9400120C94C10B0C94F80B84
:100020000C942F0C0C94660C0C9416120C942C123D
:100030000C9447000C9447000C9447000C94470024
:100040000C948C200C9447000C9447000C944700AF
:100050000C94470011241FBECFE5D8E0DEBFCDBF12
:1000600011E0A0E6B0E0EEEFF8E602C005900D92D8
:10007000A63BB107D9F712E0A6EBB1E001C01D9293
:10008000A331B107E1F70E9479330C947D340C94CD
:100090000000EF92FF920F93DF93CF93CDB7DEB7BF
:1000A00060970FB6F894DEBF0FBECDBFA82F002318
:1000B00009F461C07E010894E11CF11C88E0F7019D
:1000C00011928A95E9F729833A834B835C836D8388
:1000D0007E83AF83988780E2801BE82FFF27E7FDB0
:1000E000F09549815A816B817C81181684F01986BC
:1000F0001A861B861C86882799278E1B9F0B04C097
:10010000440F551F661F771F8A95D2F728C0202FEE
:10011000332727FD3095DB01CA01022E04C0880F6A
:10012000991FAA1FBB1F0A94D2F789879A87AB87AA
:10013000BC8704C07695679557954795EA95D2F7A1
:100140008D819E81AF81B88504C0880F991FAA1F39
:10015000BB1F2A95D2F7482B592B6A2B7B2B4D8737
:100160005E876F87788B29853A854B855C856D85A1
:100170007E85AF8598898A2F60960FB6F894DEBF8A
:100180000FBECDBFCF91DF910F91FF90EF900895FB
:10019000EF92FF920F931F937B018C0120E030E0E0
:1001A00040E05FE40E94A40488238CF0C801B701FA
:1001B00020E030E040E05FE40E9440020E9434050D
:1001C0009B01AC01205030404040504806C0C8015F
:1001D000B7010E9434059B01AC01B901CA011F910E
:1001E0000F91FF90EF900895A0E0B0E0EAEFF0E00B
:1001F0000C944634DC012B01FA019C91923008F4F6
:1002000039C1EB018881823008F433C1943069F43C
:10021000843009F02FC111969C911197898198170C
:1002200009F428C1A3E7B0E025C1843009F421C155
:100230008230A9F4923009F01DC19A01AD0188E025
:10024000EA010990AE01E90109929E018150C1F7CE
:10025000E201898111969C918923818308C19230A2
:1002600009F407C112962D903C901397EB018A81F7
:100270009B811496AD90BD90CD90DC901797EC804B
:10028000FD800E811F819101281B390BB90137FFB9
:1002900004C066277727621B730B603271050CF070
:1002A00061C0121613066CF537014801062E04C012
:1002B00096948794779467940A94D2F721E030E07B
:1002C00040E050E004C0220F331F441F551F6A95C1
:1002D000D2F721503040404050402E213F21402352
:1002E0005123211531054105510521F021E030E070
:1002F00040E050E079018A01E628F7280829192909
:100300003CC0232BD1F1260E371E35014601062EA7
:1003100004C096948794779467940A94D2F721E066
:1003200030E040E050E004C0220F331F441F551F4F
:100330006A95D2F721503040404050402A213B215D
:100340004C215D21211531054105510521F021E0A8
:1003500030E040E050E059016A01A628B728C828DB
:10036000D9280BC0821593052CF01C01AA24BB24AC
:10037000650103C0EE24FF24870111969C91D201F0
:1003800011968C91981709F445C0992339F0A8016A
:1003900097012A193B094C095D0906C0A601950180
:1003A0002E193F09400B510B57FD08C011823382B3
:1003B000228224833583468357831DC081E0818355
:1003C0003382228288279927DC01821B930BA40B9E
:1003D000B50B84839583A683B7830DC0220F331F8B
:1003E000441F551F2483358346835783828193811D
:1003F0000197938382832481358146815781DA0175
:10040000C9010197A109B1098F5F9F4FAF4FBF434A
:1004100028F30BC0918333822282EA0CFB1C0C1D53
:100420001D1DE482F5820683178383E08083248187
:1004300035814681578157FF1AC0C901AA2797FD08
:10044000A095BA2F81709070A070B07056954795A6
:1004500037952795822B932BA42BB52B84839583DB
:10046000A683B78382819381019693838283DF0180
:1004700001C0D201CD01CDB7DEB7E2E10C94623408
:10048000A0E2B0E0E6E4F2E00C94523469837A83AF
:100490008B839C832D833E834F835887E9E0EE2E28
:1004A000F12CEC0EFD1ECE010196B7010E9425072E
:1004B0008E010F5E1F4FCE010596B8010E942507E1
:1004C0008A8991E089278A8BC701B801AE01475E0E
:1004D0005F4F0E94F4000E945006A096E6E00C9444
:1004E0006E34A0E2B0E0E7E7F2E00C9452346983A6
:1004F0007A838B839C832D833E834F835887F9E0D7
:10050000EF2EF12CEC0EFD1ECE010196B7010E94DC
:1005100025078E010F5E1F4FCE010596B8010E9480
:100520002507C701B801AE01475E5F4F0E94F40086
:100530000E945006A096E6E00C946E34A0E2B0E073
:10054000E4EAF2E00C94463469837A838B839C83DB
:100550002D833E834F835887CE010196BE01675F8E
:100560007F4F0E942507CE010596BE016F5E7F4F2B
:100570000E9425079985923088F089898230C8F0D9
:10058000943019F4823051F404C0843029F492304C
:1005900081F483E790E0C6C0923049F420E09A8568
:1005A0008A89981321E02A87CE010996BBC0823040
:1005B00049F420E09A858A89981321E02A8BCE019C
:1005C0004196B0C02D843E844F8458886D887E88C3
:1005D0008F88988CEE24FF248701AA24BB24650110
:1005E00040E050E060E070E0E0E0F0E0C1018170E8
:1005F0009070892BE9F0E60CF71C081D191D9A0173
:10060000AB012A0D3B1D4C1D5D1D80E090E0A0E07C
:10061000B0E0E614F7040805190520F481E090E045
:10062000A0E0B0E0BA01A901480F591F6A1F7B1F63
:10063000AA0CBB1CCC1CDD1C97FE08C081E090E01E
:10064000A0E0B0E0A82AB92ACA2ADB2A3196E03213
:10065000F10549F0660C771C881C991C5694479448
:1006600037942794C3CFFA85EA892B893C898B85F7
:100670009C85280F391F2E5F3F4F17C0CA0181701C
:100680009070892B61F016950795F794E79480E0B8
:1006900090E0A0E0B0E8E82AF92A0A2B1B2B769517
:1006A0006795579547952F5F3F4F77FDE7CF0CC074
:1006B000440F551F661F771F17FD4160EE0CFF1C8E
:1006C000001F111F21503040403090E0590790E04A
:1006D000690790E4790760F32B8F3C8FDB01CA0137
:1006E0008F779070A070B07080349105A105B1052E
:1006F00061F447FD0AC0E114F1040105110529F078
:10070000405C5F4F6F4F7F4F40781A8EFE1711F09D
:1007100081E08A8F4D8F5E8F6F8F78A383E0898F02
:10072000CE0149960E945006A096E2E10C946234F4
:10073000A8E1B0E0EEE9F3E00C944E3469837A83EB
:100740008B839C832D833E834F835887B9E0EB2EA8
:10075000F12CEC0EFD1ECE010196B7010E9425077B
:100760008E010F5E1F4FCE010596B8010E9425072E
:100770002985223008F47EC03989323010F4B8015E
:100780007CC08A859A8989278A87243011F0223093
:1007900031F4231709F06EC063E770E06EC03430A7
:1007A00039F41D861E861F86188A1C861B8604C087
:1007B000323021F484E08987B7015FC02B853C8506
:1007C0008B899C89281B390B3C872B87ED84FE8401
:1007D0000F851889AD88BE88CF88D88CEA14FB04B1
:1007E0000C051D0540F4EE0CFF1C001F111F2150CD
:1007F00030403C872B8720E030E040E050E080E054
:1008000090E0A0E0B0E460E070E0EA14FB040C05C6
:100810001D0540F0282B392B4A2B5B2BEA18FB08CF
:100820000C091D09B695A79597958795EE0CFF1CA9
:10083000001F111F6F5F7F4F6F31710531F7DA01B4
:10084000C9018F779070A070B07080349105A105B8
:10085000B10561F427FD0AC0E114F1040105110599
:1008600029F0205C3F4F4F4F5F4F20782D873E8708
:100870004F87588BBE01675F7F4FCB010E945006A8
:100880006896EAE00C946A34A8E1B0E0EAE4F4E0A7
:100890000C94523469837A838B839C832D833E83AB
:1008A0004F83588789E0E82EF12CEC0EFD1ECE0117
:1008B0000196B7010E9425078E010F5E1F4FCE01E2
:1008C0000596B8010E9425078985823040F0898904
:1008D000823028F0C701B8010E949D0701C081E065
:1008E0006896E6E00C946E34A8E1B0E0EAE7F4E044
:1008F0000C94523469837A838B839C832D833E834B
:100900004F83588789E0E82EF12CEC0EFD1ECE01B6
:100910000196B7010E9425078E010F5E1F4FCE0181
:100920000596B8010E9425078985823040F08989A3
:10093000823028F0C701B8010E949D0701C08FEFE7
:100940006896E6E00C946E34A8E1B0E0EAEAF4E0E0
:100950000C94523469837A838B839C832D833E83EA
:100960004F83588789E0E82EF12CEC0EFD1ECE0156
:100970000196B7010E9425078E010F5E1F4FCE0121
:100980000596B8010E9425078985823040F0898943
:10099000823028F0C701B8010E949D0701C08FEF87
:1009A0006896E6E00C946E34A8E1B0E0EAEDF4E07D
:1009B0000C94523469837A838B839C832D833E838A
:1009C0004F83588789E0E82EF12CEC0EFD1ECE01F6
:1009D0000196B7010E9425078E010F5E1F4FCE01C1
:1009E0000596B8010E9425078985823040F08989E3
:1009F000823028F0C701B8010E949D0701C081E044
:100A00006896E6E00C946E34A8E1B0E0EAE0F5E028
:100A10000C94523469837A838B839C832D833E8329
:100A20004F83588789E0E82EF12CEC0EFD1ECE0195
:100A30000196B7010E9425078E010F5E1F4FCE0160
:100A40000596B8010E9425078985823040F0898982
:100A5000823028F0C701B8010E949D0701C081E0E3
:100A60006896E6E00C946E34ACE0B0E0EAE3F5E0C2
:100A70000C94563469837A838B839C83CE010196D0
:100A8000BE016B5F7F4F0E9425078D81823061F12F
:100A9000823050F1843021F48E81882351F12EC0B0
:100AA0002F81388537FD20C06E812F3131051CF034
:100AB0006623F9F023C08EE190E0821B930B298519
:100AC0003A854B855C8504C05695479537952795A3
:100AD0008A95D2F76623B1F05095409530952195CF
:100AE0003F4F4F4F5F4F0EC020E030E040E050E0FE
:100AF00009C02FEF3FEF4FEF5FE704C020E030E089
:100B000040E050E8B901CA012C96E2E00C9472343E
:100B1000A8E0B0E0EEE8F5E00C944E347B018C01E7
:100B2000611571058105910519F482E0898360C022
:100B300083E089838EE1C82ED12CDC82CB82ED82CA
:100B4000FE820F831887C801B7010E940106FC01CD
:100B50003197F7FF3BC0222733272E1B3F0B57014E
:100B60006801022E04C0D694C794B794A7940A943F
:100B7000D2F740E050E060E070E081E090E0A0E07B
:100B8000B0E004C0880F991FAA1FBB1F2A95D2F797
:100B90000197A109B1098E219F21A023B1230097BC
:100BA000A105B10521F041E050E060E070E04A2984
:100BB0005B296C297D294D835E836F8378878EE165
:100BC00090E08E1B9F0B9C838B8312C0309781F02B
:100BD0000E2E04C0EE0CFF1C001F111F0A94D2F74A
:100BE000ED82FE820F831887CE1ADF0ADC82CB8269
:100BF0001A82CE0101960E9450062896EAE00C94D3
:100C00006A34EF92FF920F931F937B018C0180E077
:100C1000E81680E0F80681E0080780E0180788F40D
:100C20008FEFE816F1040105110531F028F088E096
:100C300090E0A0E0B0E017C080E090E0A0E0B0E07D
:100C400012C080E0E81680E0F80680E0080781E046
:100C5000180728F088E190E0A0E0B0E004C080E14F
:100C600090E0A0E0B0E020E230E040E050E0281B5F
:100C7000390B4A0B5B0B04C016950795F794E79464
:100C80008A95D2F7F701E558FF4F8081281B31097B
:100C900041095109C9011F910F91FF90EF900895EB
:100CA000DF92EF92FF920F931F93FC01E480F58097
:100CB00006811781D1808081823048F480E090E005
:100CC000A0E1B0E0E82AF92A0A2B1B2BA5C084304A
:100CD00009F49FC0823021F4EE24FF24870105C06F
:100CE000E114F1040105110519F4E0E0F0E096C00B
:100CF000628173819FEF623879070CF05BC022E854
:100D00003FEF261B370B2A3131052CF020E030E075
:100D100040E050E02AC0B801A701022E04C0769539
:100D20006795579547950A94D2F781E090E0A0E047
:100D3000B0E004C0880F991FAA1FBB1F2A95D2F7E5
:100D40000197A109B1098E219F21A023B12300970A
:100D5000A105B10521F081E090E0A0E0B0E09A01AA
:100D6000AB01282B392B4A2B5B2BDA01C9018F777A
:100D70009070A070B07080349105A105B10539F470
:100D800027FF09C0205C3F4F4F4F5F4F04C0215CDD
:100D90003F4F4F4F5F4FE0E0F0E02030A0E03A07D8
:100DA000A0E04A07A0E45A0710F0E1E0F0E0790182
:100DB0008A0127C06038710564F5FB01E158FF4FD7
:100DC000D801C7018F779070A070B0708034910502
:100DD000A105B10539F4E7FE0DC080E490E0A0E084
:100DE000B0E004C08FE390E0A0E0B0E0E80EF91EB0
:100DF0000A1F1B1F17FF05C016950795F794E79468
:100E0000319687E016950795F794E7948A95D1F780
:100E100005C0EE24FF248701EFEFF0E06E2F679509
:100E200066276795902F9F77D794DD24D7948E2FD0
:100E30008695492F462B582F5D29B701CA011F916E
:100E40000F91FF90EF90DF900895FC01DB0140814E
:100E500051812281622F6F7770E0221F2227221F8B
:100E60009381892F880F822B282F30E0991F992793
:100E7000991F11969C93119721153105A9F54115DC
:100E800051056105710511F482E037C082E89FEFDA
:100E900013969C938E9312979A01AB0167E0220FF1
:100EA000331F441F551F6A95D1F783E08C930DC003
:100EB000220F331F441F551F12968D919C9113973B
:100EC000019713969C938E931297203080E03807F9
:100ED00080E0480780E4580758F314962D933D931B
:100EE0004D935C93179708952F3F310579F4411581
:100EF00051056105710519F484E08C93089564FF30
:100F000003C081E08C9312C01C9210C02F57304058
:100F100013963C932E93129783E08C9387E0440FB3
:100F2000551F661F771F8A95D1F7706414964D93ED
:100F30005D936D937C93179708951F93DC01FB01DC
:100F40009C91923008F447C08081823008F443C0FD
:100F5000943051F411961C91843099F58181682F59
:100F600070E0611B71093FC0843021F0923031F490
:100F70008230B9F18181882389F12DC011961C91AD
:100F800011978230F1F081811817D9F412962D91C2
:100F90003C911397828193818217930794F02817CD
:100FA0003907BCF014968D919D910D90BC91A02DA8
:100FB0002481358146815781281739074A075B0705
:100FC00018F4112341F00AC082179307A407B5074C
:100FD00040F4112319F061E070E005C06FEF7FEF7E
:100FE00002C060E070E0CB011F910895DF93CF93C2
:100FF00000D00F92CDB7DEB781E08B83A0E4B0E0E4
:10100000E0E4F0E080818F778C9387E690E09A832C
:101010008983A0E4B0E0E0E4F0E0208189819A8156
:10102000892F9927822B8C93E9E2F0E089818083D4
:10103000AAE2B0E0EAE2F0E080818F7E8C93AAE23F
:10104000B0E0EAE2F0E0808188608C93A0E4B0E058
:10105000E0E4F0E0808180688C93A0E4B0E0E0E41C
:10106000F0E080818F7B8C93A0E4B0E0E0E4F0E0DE
:10107000808180688C93A0E4B0E0E0E4F0E08081BF
:10108000897F8C93AAE2B0E0EAE2F0E080818B7F76
:101090008C93A0E4B0E0E0E4F0E0808182608C9387
:1010A000A0E4B0E0E0E4F0E0808184608C93A0E410
:1010B000B0E0E0E4F0E0808180688C93A0E4B0E0F0
:1010C000E0E4F0E08081877F8C93A0E4B0E0E0E48E
:1010D000F0E0808180688C93A0E4B0E0E0E4F0E090
:1010E00080818F7C8C93AAE2B0E0EAE2F0E080811C
:1010F0008F718C938B810F900F900F90CF91DF9118
:101100000895DF93CF9300D00F92CDB7DEB79B83C6
:101110008A8381E08983EBE2F0E080818295869585
:101120008770882F90E081709070882331F0ECE216
:10113000F0E08A818083198202C084E089838981FA
:101140000F900F900F90CF91DF910895DF93CF9381
:1011500000D000D00F92CDB7DEB79D838C8381E0A5
:101160008B831A821982EBE2F0E0808188234CF4B1
:10117000ECE2F0E08081882F90E09A8389831B82E3
:1011800006C084E08B838FEF90E09A838983EC81A3
:10119000FD8189819A81918380838B810F900F904B
:1011A0000F900F900F90CF91DF910895DF93CF9321
:1011B00000D000D00F92CDB7DEB79D838C8381E045
:1011C0008B838C819D810097B9F08C819D819A835E
:1011D00089830CC0E981FA818081882F90E00E9488
:1011E000810889819A8101969A838983E981FA81AC
:1011F0008081882379F702C083E08B838B810F90F5
:101200000F900F900F900F90CF91DF910895DF9383
:10121000CF9300D000D00F92CDB7DEB79B838A83E7
:101220007D836C8381E089838A819B81009771F043
:101230008A819B819093B7018093B6018C819D81B7
:101240009093B9018093B801198202C083E0898329
:1012500089810F900F900F900F900F90CF91DF9199
:101260000895DF93CF930F92CDB7DEB781E08983E6
:10127000AFE4B0E0EFE4F0E080818C7F8C93AEE4EB
:10128000B0E0EEE4F0E08081877E8C93A9E5B0E0E9
:10129000E9E5F0E080818B7F8C93AEE4B0E0EEE492
:1012A000F0E080818F7B8C93A9E5B0E0E9E5F0E088
:1012B00080818F7D8C93AEE4B0E0EEE4F0E080813D
:1012C00080688C93AEE4B0E0EEE4F0E08081887F4B
:1012D0008C93AEE4B0E0EEE4F0E0808181608C932A
:1012E000AEE4B0E0EEE4F0E0808182608C9389812E
:1012F0000F90CF91DF910895DF93CF9300D00F929D
:10130000CDB7DEB79B838A8381E089838A819B8105
:101310000097D9F0E6E4F0E08081882F90E0EA8140
:10132000FB8191838083EA81FB8120813181E7E425
:10133000F0E08081882F90E0982F8827822B932BD4
:10134000EA81FB819183808302C083E08983898164
:101350000F900F900F90CF91DF910895DF93CF936F
:1013600000D00F92CDB7DEB79B838A8381E089835B
:10137000EDE4F0E08A819B81892F99278083ECE45A
:10138000F0E08A81808389810F900F900F90CF9138
:10139000DF910895DF93CF9300D00F92CDB7DEB7E2
:1013A0009B838A8381E089838A819B810097D9F01E
:1013B000ECE4F0E08081882F90E0EA81FB8191836A
:1013C0008083EA81FB8120813181EDE4F0E080813E
:1013D000882F90E0982F8827822B932BEA81FB811E
:1013E0009183808302C083E0898389810F900F906D
:1013F0000F90CF91DF910895DF93CF9300D000D06D
:1014000000D0CDB7DEB78A837C836B835E834D8348
:101410008B819C810097C9F08A81882F90E0880F8A
:10142000991FFC01E654FE4F8B819C819183808340
:101430008A81882F90E02D813E81880F991FFC01C1
:10144000EE53FE4F3183208302C083E0898389817C
:1014500026960FB6F894DEBF0FBECDBFCF91DF91B9
:101460000895DF93CF9300D000D0CDB7DEB78A8345
:1014700081E089838A81282F30E03C832B838B8114
:101480009C8181309105E9F02B813C81223031052E
:101490002CF48B819C81009761F02BC02B813C81C7
:1014A00022303105B1F08B819C8183309105C9F0E8
:1014B00020C0A9E5B0E0E9E5F0E080818F7D8C9364
:1014C0001AC0A9E5B0E0E9E5F0E080818F7E8C9359
:1014D00012C0A9E5B0E0E9E5F0E080818F7E8C9351
:1014E0000AC0A9E5B0E0E9E5F0E080818B7F8C934C
:1014F00002C082E0898389810F900F900F900F9036
:10150000CF91DF910895DF93CF9300D000D0CDB776
:10151000DEB78A8381E089838A81282F30E03C838B
:101520002B838B819C8181309105F1F02B813C8153
:10153000223031052CF48B819C81009761F02EC004
:101540002B813C8122303105B9F08B819C81833025
:101550009105D9F023C0A9E5B0E0E9E5F0E080818C
:1015600080628C9319821CC0A9E5B0E0E9E5F0E047
:10157000808180618C9314C0A9E5B0E0E9E5F0E0DA
:10158000808180618C9319820BC0A9E5B0E0E9E508
:10159000F0E0808184608C93198202C082E08983AC
:1015A00089810F900F900F900F90CF91DF91089548
:1015B000DF93CF9300D000D000D0CDB7DEB79C83AF
:1015C0008B8381E08A83EEE4F0E0808187708983F9
:1015D0008981282F30E03E832D838D819E8182304A
:1015E000910559F12D813E812330310554F48D81CF
:1015F0009E810097B1F02D813E8121303105B1F0FF
:1016000038C08D819E818430910529F12D813E81E4
:1016100024303105CCF08D819E818530910511F10A
:1016200028C0EB81FC811182108225C0EB81FC81F6
:1016300081E090E0918380831EC0EB81FC8188E093
:1016400090E09183808317C0EB81FC8180E490E07F
:101650009183808310C0EB81FC8180E091E09183D5
:10166000808309C0EB81FC8180E094E091838083DA
:1016700002C082E08A838A8126960FB6F894DEBF84
:101680000FBECDBFCF91DF910895DF93CF9300D0F0
:10169000CDB7DEB78A8381E089838A81882341F4CC
:1016A000AEE4B0E0EEE4F0E080818F7B8C930DC07F
:1016B0008A81813041F4AEE4B0E0EEE4F0E0808174
:1016C00080648C9302C082E0898389810F900F909F
:1016D000CF91DF910895DF93CF9300D000D0CDB7A5
:1016E000DEB78A8381E089838A81282F30E03C83BA
:1016F0002B838B819C8181309105F1F02B813C8182
:10170000223031052CF48B819C81009761F02FC031
:101710002B813C8122303105C1F08B819C8183304B
:101720009105E1F024C0A8E5B0E0E8E5F0E08081B3
:1017300080628C9319821DC0A8E5B0E0E8E5F0E076
:10174000808180618C93198214C0A8E5B0E0E8E53F
:10175000F0E0808188608C9319820BC0A8E5B0E02E
:10176000E8E5F0E0808184608C93198202C082E019
:10177000898389810F900F900F900F90CF91DF9107
:1017800008951F920F920FB60F9211242F933F933B
:101790004F935F936F937F938F939F93AF93BF9379
:1017A000EF93FF93DF93CF93CDB7DEB78091BA016C
:1017B0009091BB01009749F0E091BA01F091BB0113
:1017C0008091C2019091C3010995CF91DF91FF9162
:1017D000EF91BF91AF919F918F917F916F915F91A9
:1017E0004F913F912F910F900FBE0F901F90189522
:1017F0001F920F920FB60F9211242F933F934F9386
:101800005F936F937F938F939F93AF93BF93EF9368
:10181000FF93DF93CF93CDB7DEB78091BC0190915A
:10182000BD01009749F0E091BC01F091BD018091AC
:10183000C4019091C5010995CF91DF91FF91EF917E
:10184000BF91AF919F918F917F916F915F914F91D8
:101850003F912F910F900FBE0F901F9018951F92E0
:101860000F920FB60F9211242F933F934F935F93D4
:101870006F937F938F939F93AF93BF93EF93FF9358
:10188000DF93CF93CDB7DEB78091BE019091BF01BA
:10189000009749F0E091BE01F091BF018091C6012F
:1018A0009091C7010995CF91DF91FF91EF91BF9181
:1018B000AF919F918F917F916F915F914F913F91E8
:1018C0002F910F900FBE0F901F9018951F920F929F
:1018D0000FB60F9211242F933F934F935F936F9303
:1018E0007F938F939F93AF93BF93EF93FF93DF9378
:1018F000CF93CDB7DEB78091C0019091C101009721
:1019000049F0E091C001F091C1018091C80190912E
:10191000C9010995CF91DF91FF91EF91BF91AF91EF
:101920009F918F917F916F915F914F913F912F91F7
:101930000F900FBE0F901F901895DF93CF9300D09C
:1019400000D000D0CDB7DEB71A8219821B821C826C
:101950001D821E821982B3C08981282F30E0C901FF
:10196000880F991F880F991F820F931FFC01E4585D
:10197000FE4F40818981282F30E0C901880F991FCF
:10198000880F991F820F931FFC01E358FE4F90812F
:10199000842F692F0E9463128B838981282F30E066
:1019A000C901880F991F880F991F820F931FFC018F
:1019B000E458FE4F40818981282F30E0C901880F0B
:1019C000991F880F991F820F931FFC01E258FE4F49
:1019D0009081842F692F0E942D138C838981282F59
:1019E00030E0C901880F991F880F991F820F931F3C
:1019F000FC01E458FE4F50818981282F30E0C90155
:101A0000880F991F880F991F820F931FFC01E358BD
:101A1000FE4F40818981282F30E0C901880F991F2E
:101A2000880F991F820F931FFC01E158FE4F908190
:101A3000852F642F492F0E9453158D838981282F6C
:101A400030E0C901880F991F880F991F820F931FDB
:101A5000FC01E458FE4F50818981282F30E0C901F4
:101A6000880F991F880F991F820F931FFC01E3585D
:101A7000FE4F40818981282F30E0C901880F991FCE
:101A8000880F991F820F931FFC01E058FE4F908131
:101A9000852F642F492F0E94EF158E838B81813013
:101AA00049F08C81813031F08D81813019F08E8147
:101AB000813011F481E08A8389818F5F89839091DD
:101AC0007B018981891708F447CF8A8126960FB652
:101AD000F894DEBF0FBECDBFCF91DF910895DF93A5
:101AE000CF9300D000D000D0CDB7DEB78A837C83FF
:101AF0006B8381E089838A81282F30E03E832D83A8
:101B00008D819E8181309105B9F02D813E812230F9
:101B1000310551F08D819E81009761F4ECE5F0E094
:101B20008B818083198208C0E3E4F0E08B8180839D
:101B3000198202C082E08983898126960FB6F894C3
:101B4000DEBF0FBECDBFCF91DF910895DF93CF935E
:101B500000D000D000D0CDB7DEB78A837C836B8302
:101B600081E089838A81282F30E03E832D838D8117
:101B70009E8181309105B1F02D813E812230310569
:101B800051F08D819E81009759F4E2E5F0E08B8160
:101B90008083198207C0E4E4F0E08B81808302C077
:101BA00082E08983898126960FB6F894DEBF0FBE46
:101BB000CDBFCF91DF910895DF93CF9300D000D0B8
:101BC00000D0CDB7DEB78A837C836B8381E08983C5
:101BD0008B819C81009761F18A81282F30E03E83C0
:101BE0002D838D819E818130910521F12D813E8152
:101BF0002230310579F08D819E810097B1F4E2E5C4
:101C0000F0E08081882F90E0EB81FC8191838083DC
:101C1000198210C0E4E4F0E08081882F90E0EB812D
:101C2000FC8191838083198205C082E0898302C090
:101C300083E08983898126960FB6F894DEBF0FBEB4
:101C4000CDBFCF91DF910895DF93CF9300D00F9256
:101C5000CDB7DEB78A836B8381E089838A816B810C
:101C60000E942D13898389810F900F900F90CF913F
:101C7000DF9108950F931F93DF93CF93CDB7DEB716
:101C80002C970FB6F894DEBF0FBECDBF8A836B834F
:101C90004C830D831E832F83388781E089831C86C4
:101CA0006D817E818F81988520E030E040E050E0BA
:101CB0000E94A404882314F021E02C8781E03C8555
:101CC0008327882309F064C11B866D817E818F8103
:101CD000988520E030E040E85FE30E940405181694
:101CE00014F081E08B8781E09B858927882309F0A8
:101CF0004FC18A81E82FF0E0FA87E98729853A8584
:101D00002130310509F446C189859A8582309105D3
:101D100009F4A0C0E985FA85309709F036C18B81B6
:101D2000823009F043C08C818630C1F40CE510E0AC
:101D30006D817E818F81988520E030E04FE753E40C
:101D40000E949E02DC01CB01BC01CD010E94C800B3
:101D5000DC01CB01F801808319821CC18C818730A2
:101D600011F50CE510E060E070E080E89FE32D8164
:101D70003E814F8158850E944002DC01CB01BC01AD
:101D8000CD0120E030E04FE753E40E949E02DC01E9
:101D9000CB01BC01CD010E94C800DC01CB01F801E0
:101DA00080831982F7C082E08983F4C08B818330FD
:101DB00009F04DC08C81843011F50CE510E06D8187
:101DC0007E818F81988520E030E040E853E40E94D6
:101DD0009E02DC01CB01BC01CD0120E030E040E8F7
:101DE0005FE30E944002DC01CB01BC01CD010E94F7
:101DF000C800DC01CB01F80180831982CBC08C8143
:101E0000853011F50CE510E06D817E818F8198851C
:101E100020E030E040E853EC0E949E02DC01CB0160
:101E2000BC01CD0120E030E04FE753E40E94710295
:101E3000DC01CB01BC01CD010E94C800DC01CB015B
:101E4000F80180831982A6C082E08983A3C082E062
:101E50008983A0C08B81823009F043C08C81863099
:101E6000C1F403E410E06D817E818F81988520E0CC
:101E700030E04FE753E40E949E02DC01CB01BC013D
:101E8000CD010E94C800DC01CB01F80180831982DA
:101E900081C08C81873011F503E410E060E070E0D0
:101EA00080E89FE32D813E814F8158850E9440024A
:101EB000DC01CB01BC01CD0120E030E04FE753E471
:101EC0000E949E02DC01CB01BC01CD010E94C80032
:101ED000DC01CB01F801808319825CC082E0898338
:101EE00059C08B81833009F04DC08C81843011F54D
:101EF00003E410E06D817E818F81988520E030E0E1
:101F000040E853E40E949E02DC01CB01BC01CD01FC
:101F100020E030E040E85FE30E944002DC01CB01BA
:101F2000BC01CD010E94C800DC01CB01F801808317
:101F3000198230C08C81853011F503E410E06D8189
:101F40007E818F81988520E030E040E853EC0E944C
:101F50009E02DC01CB01BC01CD0120E030E04FE767
:101F600053E40E947102DC01CB01BC01CD010E944F
:101F7000C800DC01CB01F801808319820BC082E02C
:101F8000898308C082E0898305C082E0898302C01A
:101F900082E0898389812C960FB6F894DEBF0FBE4C
:101FA000CDBFCF91DF911F910F910895DF93CF9314
:101FB00000D000D00F92CDB7DEB78A836B8381E06B
:101FC00089838A81282F30E03D832C838C819D81F9
:101FD00081309105E9F02C813D812230310569F095
:101FE0008C819D81009791F4A3E5B0E0E3E5F0E0FA
:101FF000808180688C9319820BC0A5E4B0E0E5E491
:10200000F0E0808180688C93198202C082E089832D
:1020100089810F900F900F900F900F90CF91DF91CB
:102020000895DF93CF9300D00F92CDB7DEB78A83A8
:102030006B8381E089838A816B810E94631289832B
:1020400089810F900F900F90CF91DF910895DF93CA
:10205000CF9300D000D0CDB7DEB78A8381E08983EB
:102060008A81282F30E03C832B838B819C818130B7
:10207000910591F02B813C812230310579F08B81E3
:102080009C810097A1F4A3E5B0E0E3E5F0E0808156
:1020900080688C9319820DC019820BC0A5E4B0E052
:1020A000E5E4F0E0808180688C93198202C082E0D0
:1020B000898389810F900F900F900F90CF91DF91BE
:1020C0000895DF93CF9300D00F92CDB7DEB78A8308
:1020D0006B8381E0898389810F900F900F90CF915E
:1020E000DF910895DF93CF93CDB7DEB729970FB671
:1020F000F894DEBF0FBECDBF8A836B835D834C83B4
:102100003F832E8381E089838C819D81009709F430
:1021100062C08A81282F30E0398728878885998591
:102120008130910509F459C028853985223031055F
:1021300051F188859985009709F04AC08B818823E1
:1021400071F48C819D819093D9018093D8018E8107
:102150009F819093E9018093E80119823EC08B81B1
:10216000813071F48C819D819093D7018093D60149
:102170008E819F819093E7018093E60119822DC0A3
:1021800082E089832AC08B81882371F48C819D81B0
:102190009093CD018093CC018E819F819093DD013E
:1021A0008093DC01198219C08B81813071F48C819C
:1021B0009D819093CB018093CA018E819F819093E2
:1021C000DB018093DA01198208C082E0898305C0AF
:1021D00082E0898302C083E08983898129960FB6D2
:1021E000F894DEBF0FBECDBFCF91DF910895DF938E
:1021F000CF93CDB7DEB729970FB6F894DEBF0FBEE9
:10220000CDBF8B837D836C8381E08A838B81282F74
:1022100030E039872887888599858130910509F4D0
:1022200066C0288539852230310509F460C088856B
:102230009985009709F059C0E3E5F0E08081877047
:1022400089838981282F30E03F832E838E819F816F
:102250008230910559F12E813F812330310554F4AC
:102260008E819F810097B1F02E813F812130310511
:10227000B1F038C08E819F818430910529F12E8183
:102280003F8124303105CCF08E819F8185309105CE
:1022900011F128C0EC81FD811182108228C0EC81EF
:1022A000FD8181E090E09183808321C0EC81FD81FC
:1022B00088E090E0918380831AC0EC81FD8180E406
:1022C00090E09183808313C0EC81FD8180E091E0F8
:1022D000918380830CC0EC81FD8180E094E0918348
:1022E000808305C082E08A8302C082E08A838A817B
:1022F00029960FB6F894DEBF0FBECDBFCF91DF9108
:102300000895DF93CF9300D000D0CDB7DEB78A8396
:102310007C836B8381E089838A81882F90E000979A
:1023200041F4E8E5F0E080818170EB81FC818083FD
:1023300002C082E0898389810F900F900F900F90E7
:10234000CF91DF910895DF93CF9300D0CDB7DEB763
:102350008A8381E089838A81882F90E0009741F405
:10236000A8E5B0E0E8E5F0E0808181608C9302C0F0
:1023700082E0898389810F900F90CF91DF9108953A
:10238000DF93CF9300D00F92CDB7DEB78A836B83F4
:102390008A816B8141E00E945315898389810F9066
:1023A0000F900F90CF91DF910895DF93CF9300D0DE
:1023B0000F92CDB7DEB78A836B838A816B8140E051
:1023C0000E945315898389810F900F900F90CF91B0
:1023D000DF910895DF93CF93CDB7DEB78091CA0127
:1023E0009091CB01009749F0E091CA01F091CB01A7
:1023F0008091DA019091DB010995CF91DF910895E9
:10240000DF93CF93CDB7DEB78091CA019091CB0116
:10241000009749F0E091CA01F091CB018091DA0177
:102420009091DB010995CF91DF910895DF93CF93D0
:10243000CDB7DEB78091D6019091D701009749F0D2
:10244000E091D601F091D7018091E6019091E701EA
:102450000995CF91DF9108951F920F920FB60F92B9
:1024600011242F933F934F935F936F937F938F9399
:102470009F93AF93BF93EF93FF93DF93CF93CDB72A
:10248000DEB78091D8019091D901009749F0E09191
:10249000D801F091D9018091E8019091E901099565
:1024A000CF91DF91FF91EF91BF91AF919F918F916C
:1024B0007F916F915F914F913F912F910F900FBE40
:1024C0000F901F901895DF93CF9300D000D00F92FC
:1024D000CDB7DEB78A836B8381E089838A81282F19
:1024E00030E03D832C838C819D818130910509F4FE
:1024F000ABC02C813D812230310509F454C08C8160
:102500009D81009709F09EC08B81882381F4A3E50B
:10251000B0E0E3E5F0E080818F7B8C93A3E5B0E051
:10252000E3E5F0E08081877F8C9319828DC08B81F9
:10253000823081F4A3E5B0E0E3E5F0E080818064DF
:102540008C93A3E5B0E0E3E5F0E08081877F8C9396
:1025500019827AC08B81813081F4A3E5B0E0E3E594
:10256000F0E080818F7B8C93A3E5B0E0E3E5F0E0C1
:10257000808188608C93198267C08B81833081F45D
:10258000A3E5B0E0E3E5F0E0808180648C93A3E50F
:10259000B0E0E3E5F0E0808188608C93198254C05C
:1025A00082E0898351C08B81882381F4A5E4B0E067
:1025B000E5E4F0E080818F7B8C93A5E4B0E0E5E476
:1025C000F0E08081877F8C9319823EC08B818230BE
:1025D00081F4A5E4B0E0E5E4F0E0808180648C93D0
:1025E000A5E4B0E0E5E4F0E08081877F8C93198278
:1025F0002BC08B81813081F4A5E4B0E0E5E4F0E00C
:1026000080818F7B8C93A5E4B0E0E5E4F0E08081ED
:1026100088608C93198218C08B81833081F4A5E483
:10262000B0E0E5E4F0E0808180648C93A5E4B0E064
:10263000E5E4F0E0808188608C93198205C082E037
:10264000898302C082E0898389810F900F900F9067
:102650000F900F90CF91DF910895DF93CF93CDB777
:10266000DEB729970FB6F894DEBF0FBECDBF8A83C1
:102670006B8381E089838A81282F30E0398728871E
:10268000888599858130910509F403C228853985AB
:102690002230310509F400C188859985009709F039
:1026A000F6C18B81282F30E03F832E838E819F815E
:1026B0008430910509F47AC02E813F81253031059F
:1026C0008CF48E819F818130910509F441C02E8167
:1026D0003F812230310509F452C08E819F810097DD
:1026E00001F1D7C02E813F812730310509F48CC01C
:1026F0008E819F81883091053CF42E813F81263068
:10270000310509F46AC0C5C08E819F81883091056A
:1027100009F491C02E813F812930310509F4A2C00E
:10272000B8C0A3E5B0E0E3E5F0E080818E7F8C9354
:10273000A3E5B0E0E3E5F0E080818D7F8C93A3E535
:10274000B0E0E3E5F0E080818B7F8C931982A1C13A
:10275000A3E5B0E0E3E5F0E0808181608C93A3E540
:10276000B0E0E3E5F0E080818D7F8C93A3E5B0E0FD
:10277000E3E5F0E080818B7F8C9319828AC1A3E529
:10278000B0E0E3E5F0E080818E7F8C93A3E5B0E0DC
:10279000E3E5F0E0808182608C93A3E5B0E0E3E5BF
:1027A000F0E080818B7F8C93198273C1A3E5B0E048
:1027B000E3E5F0E0808181608C93A3E5B0E0E3E5A0
:1027C000F0E0808182608C93A3E5B0E0E3E5F0E087
:1027D00080818B7F8C9319825CC1A3E5B0E0E3E537
:1027E000F0E080818E7F8C93A3E5B0E0E3E5F0E03C
:1027F00080818D7F8C93A3E5B0E0E3E5F0E08081FC
:1028000084608C93198245C1A3E5B0E0E3E5F0E074
:10281000808181608C93A3E5B0E0E3E5F0E0808106
:102820008D7F8C93A3E5B0E0E3E5F0E080818460E8
:102830008C9319822EC1A3E5B0E0E3E5F0E080813E
:102840008E7F8C93A3E5B0E0E3E5F0E080818260C9
:102850008C93A3E5B0E0E3E5F0E0808184608C93A5
:10286000198217C1A3E5B0E0E3E5F0E08081816063
:102870008C93A3E5B0E0E3E5F0E0808182608C9387
:10288000A3E5B0E0E3E5F0E0808184608C931982F9
:1028900000C182E08983FDC0A2E4B0E0E2E4F0E0A0
:1028A0008081877F8C938B81282F30E03D832C8320
:1028B0008C819D818330910509F473C02C813D8109
:1028C0002430310584F48C819D8181309105D9F1CA
:1028D0002C813D81223031050CF04CC08C819D81D2
:1028E0000097D1F0D1C02C813D812530310509F40C
:1028F00086C08C819D81853091050CF469C02C8146
:102900003D812630310509F491C08C819D8187304D
:10291000910509F4A2C0B8C0A5E4B0E0E5E4F0E098
:1029200080818E7F8C93A5E4B0E0E5E4F0E08081C7
:102930008D7F8C93A5E4B0E0E5E4F0E080818B7FAF
:102940008C931982A6C0A5E4B0E0E5E4F0E08081B4
:1029500081608C93A5E4B0E0E5E4F0E080818D7FB8
:102960008C93A5E4B0E0E5E4F0E080818B7F8C936C
:1029700019828FC0A5E4B0E0E5E4F0E080818E7FAD
:102980008C93A5E4B0E0E5E4F0E0808182608C9374
:10299000A5E4B0E0E5E4F0E080818B7F8C931982C0
:1029A00078C0A5E4B0E0E5E4F0E0808181608C933C
:1029B000A5E4B0E0E5E4F0E0808182608C93A5E4DA
:1029C000B0E0E5E4F0E080818B7F8C93198261C0F8
:1029D000A5E4B0E0E5E4F0E080818E7F8C93A5E48F
:1029E000B0E0E5E4F0E080818D7F8C93A5E4B0E079
:1029F000E5E4F0E0808184608C9319824AC0A5E40C
:102A0000B0E0E5E4F0E0808181608C93A5E4B0E083
:102A1000E5E4F0E080818D7F8C93A5E4B0E0E5E40F
:102A2000F0E0808184608C93198233C0A5E4B0E02B
:102A3000E5E4F0E080818E7F8C93A5E4B0E0E5E4EE
:102A4000F0E0808182608C93A5E4B0E0E5E4F0E002
:102A5000808184608C9319821CC0A5E4B0E0E5E419
:102A6000F0E0808181608C93A5E4B0E0E5E4F0E0E3
:102A7000808182608C93A5E4B0E0E5E4F0E08081A1
:102A800084608C93198205C082E0898302C082E051
:102A90008983898129960FB6F894DEBF0FBECDBF1A
:102AA000CF91DF910895DF93CF9300D000D000D075
:102AB000CDB7DEB78A836B834C8381E089838A81BB
:102AC000282F30E03E832D838D819E8181309105BA
:102AD00009F47BC02D813E8122303105A9F18D8121
:102AE0009E81009709F06FC08B81882389F4A9E546
:102AF000B0E0E9E5F0E080818E7F8C93A9E5B0E05D
:102B0000E9E5F0E090818C81892B8C9319825DC07E
:102B10008B818130B1F4A9E5B0E0E9E5F0E0808196
:102B20008D7F8C93A9E5B0E0E9E5F0E08081282F66
:102B30008C81882F90E0880F991F822B8C931982AB
:102B400044C082E0898341C08B818823E9F4A9E5F0
:102B5000B0E0E9E5F0E080818F7B8C93A9E5B0E0FF
:102B6000E9E5F0E08081282F8C81882F90E0002417
:102B7000969587950794969587950794982F802D1D
:102B8000822B8C93198221C08B818130C9F4A9E5F5
:102B9000B0E0E9E5F0E080818F778C93A9E5B0E0C3
:102BA000E9E5F0E08081282F8C81882F90E09695D0
:102BB000982F882797958795822B8C93198205C02B
:102BC00082E0898302C082E08983898126960FB6DC
:102BD000F894DEBF0FBECDBFCF91DF910895DF9394
:102BE000CF9300D000D000D0CDB7DEB78A836B83FF
:102BF0004C8381E089838A81282F30E03E832D83B6
:102C00008D819E818130910509F4D3C02D813E8153
:102C10002230310509F468C08D819E81009709F04A
:102C2000C6C0A3E5B0E0E3E5F0E080818F7C8C9343
:102C30008C81882311F41982BCC08B81882319F000
:102C40008B81813039F58C81813049F4A3E5B0E086
:102C5000E3E5F0E0808180618C931982AAC08C81C9
:102C6000823049F4A3E5B0E0E3E5F0E080818062E2
:102C70008C9319829EC08C81833049F4A3E5B0E027
:102C8000E3E5F0E0808180638C93198292C082E05A
:102C900089838FC08B81823019F08B81833009F555
:102CA0008C81843019F08C81863049F4A3E5B0E042
:102CB000E3E5F0E0808180628C9319827AC08C8198
:102CC000853019F08C81873049F4A3E5B0E0E3E565
:102CD000F0E0808180638C9319826BC082E08983ED
:102CE00068C082E0898365C0A5E4B0E0E5E4F0E077
:102CF00080818F7C8C938C81882311F4198259C038
:102D00008B81882319F08B81813039F58C8181305A
:102D100049F4A5E4B0E0E5E4F0E0808180618C93C3
:102D2000198247C08C81823049F4A5E4B0E0E5E423
:102D3000F0E0808180628C9319823BC08C8183306B
:102D400049F4A5E4B0E0E5E4F0E0808180638C9391
:102D500019822FC082E089832CC08B81823019F0C8
:102D60008B81833009F58C81843019F08C81863019
:102D700049F4A5E4B0E0E5E4F0E0808180628C9362
:102D8000198217C08C81853019F08C81873049F405
:102D9000A5E4B0E0E5E4F0E0808180638C931982E3
:102DA00008C082E0898305C082E0898302C082E096
:102DB0008983898126960FB6F894DEBF0FBECDBFFA
:102DC000CF91DF910895DF93CF93CDB7DEB778949D
:102DD000CF91DF910895DF93CF93CDB7DEB7F8940D
:102DE000CF91DF910895DF93CF9300D0CDB7DEB7B9
:102DF00081E08A83198219823BC08981282F30E0C3
:102E0000C901880F991F820F931FFC01EE57FE4FD7
:102E100040818981282F30E0C901880F991F820FD6
:102E2000931FFC01ED57FE4F9081842F692F0E9464
:102E3000B5188981282F30E0C901880F991F820FAA
:102E4000931FFC01EE57FE4F40818981282F30E00F
:102E5000C901880F991F820F931FFC01EC57FE4F89
:102E60009081842F692F0E94301989818F5F898317
:102E7000909181018981891708F4BFCF1A828A81D4
:102E80000F900F90CF91DF910895DF93CF9300D0F3
:102E90000F92CDB7DEB78A836B8381E089838A8105
:102EA0006B810E943019898389810F900F900F9058
:102EB000CF91DF910895DF93CF9300D00F92CDB7DC
:102EC000DEB78A836B8381E089838A816B810E946C
:102ED000B518898389810F900F900F90CF91DF9162
:102EE0000895DF93CF9300D000D000D0CDB7DEB7E8
:102EF0008A837C836B8381E089838B819C810097AB
:102F0000D1F18A81282F30E03E832D838D819E81EF
:102F100081309105B1F02D813E8122303105E1F003
:102F20008D819E81009721F5EAE5F0E08081829510
:102F30008695869583708170EB81FC8180831982F0
:102F40001CC0EAE5F0E08081881F8827881FEB819C
:102F5000FC818083198211C0EAE5F0E080818295CE
:102F6000869587708170EB81FC818083198205C012
:102F700082E0898302C083E08983898126960FB627
:102F8000F894DEBF0FBECDBFCF91DF910895DF93E0
:102F9000CF9300D0CDB7DEB78A8381E089838A8161
:102FA00061E00E94D719898389810F900F90CF919A
:102FB000DF910895DF93CF9300D000D000D0CDB73C
:102FC000DEB78A837C836B835E834D8381E0898354
:102FD0008B819C810097D1F08A81882F90E02B8192
:102FE0003C81880F991FFC01E651FE4F31832083FD
:102FF0008A81882F90E0880F991FFC01E051FE4FD5
:103000008D819E8191838083198202C082E08983B1
:10301000898126960FB6F894DEBF0FBECDBFCF9143
:10302000DF9108951F920F920FB60F9211242F93E4
:103030003F934F935F936F937F938F939F93AF9340
:10304000BF93EF93FF93DF93CF93CDB7DEB780911C
:10305000EA019091EB01009749F0E091EA01F091CB
:10306000EB018091F0019091F1010995CF91DF91F1
:10307000FF91EF91BF91AF919F918F917F916F9150
:103080005F914F913F912F910F900FBE0F901F9026
:1030900018951F920F920FB60F9211242F933F9302
:1030A0004F935F936F937F938F939F93AF93BF9350
:1030B000EF93FF93DF93CF93CDB7DEB78091EC0111
:1030C0009091ED01009749F0E091EC01F091ED0154
:1030D0008091F2019091F3010995CF91DF91FF91D9
:1030E000EF91BF91AF919F918F917F916F915F9180
:1030F0004F913F912F910F900FBE0F901F901895F9
:103100001F920F920FB60F9211242F933F934F935C
:103110005F936F937F938F939F93AF93BF93EF933F
:10312000FF93DF93CF93CDB7DEB78091EE019091FF
:10313000EF01009739F0E091EE01F091EF0182E0AC
:1031400090E00995CF91DF91FF91EF91BF91AF9101
:103150009F918F917F916F915F914F913F912F91AF
:103160000F900FBE0F901F901895DF93CF9300D054
:1031700000D00F92CDB7DEB78A836B8381E089835D
:103180008A81282F30E03D832C838C819D81813082
:10319000910529F12C813D8122303105D9F18C81B5
:1031A0009D81009709F051C08B81813049F4ABE5D6
:1031B000B0E0EBE5F0E0808180648C93198247C039
:1031C0008B81882349F4ABE5B0E0EBE5F0E080814A
:1031D0008F7B8C9319823BC082E0898338C08B81BE
:1031E000813049F4ABE5B0E0EBE5F0E08081806848
:1031F0008C9319822CC08B81882349F4ABE5B0E015
:10320000EBE5F0E080818F778C93198220C082E01B
:1032100089831DC08B81813049F4ABE5B0E0EBE5DB
:10322000F0E0808180628C93198211C08B818823A9
:1032300049F4ABE5B0E0EBE5F0E080818F7D8C9365
:10324000198205C082E0898302C082E08983898176
:103250000F900F900F900F900F90CF91DF910895E6
:10326000DF93CF9300D000D00F92CDB7DEB78A8323
:103270006B8381E089838A81282F30E03D832C8312
:103280008C819D8181309105E9F12C813D81223035
:10329000310509F469C08C819D81009709F07CC0DB
:1032A000A5E5B0E0E5E5F0E080818C7F8C938B8133
:1032B000882311F4198272C08B81813049F4A5E50D
:1032C000B0E0E5E5F0E0808181608C93198266C012
:1032D0008B81823041F4A5E5B0E0E5E5F0E0808146
:1032E00082608C935BC08B81833049F4A5E5B0E0AC
:1032F000E5E5F0E0808183608C9319824FC082E025
:1033000089834CC0A5E5B0E0E5E5F0E08081837FEE
:103310008C938B81882311F4198240C08B8181307A
:1033200049F4A5E5B0E0E5E5F0E0808184608C93A8
:10333000198234C08B81823041F4A5E5B0E0E5E527
:10334000F0E0808188608C9329C08B81833049F4C0
:10335000A5E5B0E0E5E5F0E080818C608C93198212
:103360001DC082E089831AC08B81823049F4A4E5B4
:10337000B0E0E4E5F0E080818F7B8C9319820EC091
:103380008B81833059F4A4E5B0E0E4E5F0E080817E
:1033900080648C93198202C082E0898389810F90B6
:1033A0000F900F900F900F90CF91DF910895DF93C2
:1033B000CF9300D000D00F92CDB7DEB78A836B8356
:1033C00081E089838A81282F30E03D832C838C81A2
:1033D0009D818130910529F12C813D81223031057B
:1033E000D9F18C819D81009709F051C08B8181308A
:1033F00049F4AAE5B0E0EAE5F0E0808180648C93CE
:10340000198247C08B81882349F4AAE5B0E0EAE538
:10341000F0E080818F7B8C9319823BC082E08983AE
:1034200038C08B81813049F4AAE5B0E0EAE5F0E0EC
:10343000808180688C9319822CC08B81882349F409
:10344000AAE5B0E0EAE5F0E080818F778C931982FD
:1034500020C082E089831DC08B81813049F4AAE5B8
:10346000B0E0EAE5F0E0808180628C93198211C0BF
:103470008B81882349F4AAE5B0E0EAE5F0E0808199
:103480008F7D8C93198205C082E0898302C082E01F
:10349000898389810F900F900F900F900F90CF919B
:1034A000DF910895DF93CF930F92CDB7DEB781E020
:1034B0008983198289810F90CF91DF910895DF93DD
:1034C000CF9300D000D000D0CDB7DEB78A836B8316
:1034D0004C8381E089838A81843008F0D0C08B815D
:1034E000883008F0CCC08C81823008F0C8C08A8156
:1034F000282F30E03E832D836D817E816130710500
:1035000009F441C08D819E818230910534F42D8172
:103510003E812115310571F0B0C06D817E81623030
:10352000710509F459C08D819E818330910509F49C
:103530007CC0A3C0AAE3B0E0EAE3F0E08081482FBA
:103540008B81282F30E081E090E002C0880F991F26
:103550002A95E2F7809584238C93AAE3B0E0EAE30E
:10356000F0E08081482F8C81282F30E08B81882FDC
:1035700090E0B90102C0660F771F8A95E2F7CB0190
:10358000842B8C937AC0A7E3B0E0E7E3F0E080817E
:10359000482F8B81282F30E081E090E002C0880F17
:1035A000991F2A95E2F7809584238C93A7E3B0E0D6
:1035B000E7E3F0E08081482F8C81282F30E08B8179
:1035C000882F90E0B90102C0660F771F8A95E2F755
:1035D000CB01842B8C9351C0A4E3B0E0E4E3F0E092
:1035E0008081482F8B81282F30E081E090E002C05D
:1035F000880F991F2A95E2F7809584238C93A4E382
:10360000B0E0E4E3F0E08081482F8C81282F30E0A7
:103610008B81882F90E0B90102C0660F771F8A95D1
:10362000E2F7CB01842B8C9328C0A1E3B0E0E1E367
:10363000F0E08081482F8B81282F30E081E090E0FE
:1036400002C0880F991F2A95E2F7809584238C93F6
:10365000A1E3B0E0E1E3F0E08081482F8C81282FE6
:1036600030E08B81882F90E0B90102C0660F771F90
:103670008A95E2F7CB01842B8C93198202C082E0F9
:103680008983898126960FB6F894DEBF0FBECDBF21
:10369000CF91DF910895DF93CF9300D000D000D079
:1036A000CDB7DEB78A836B834C8381E089838A81BF
:1036B000843008F0D0C08B81883008F0CCC08C8179
:1036C000823008F0C8C08A81282F30E03E832D83E5
:1036D0006D817E816130710509F441C08D819E81CB
:1036E0008230910534F42D813E812115310571F030
:1036F000B0C06D817E816230710509F459C08D8141
:103700009E818330910509F47CC0A3C0ABE3B0E097
:10371000EBE3F0E08081482F8B81282F30E081E0BF
:1037200090E002C0880F991F2A95E2F780958423C4
:103730008C93ABE3B0E0EBE3F0E08081482F8C8129
:10374000282F30E08B81882F90E0B90102C0660FEE
:10375000771F8A95E2F7CB01842B8C937AC0A8E37C
:10376000B0E0E8E3F0E08081482F8B81282F30E043
:1037700081E090E002C0880F991F2A95E2F78095BA
:1037800084238C93A8E3B0E0E8E3F0E08081482F45
:103790008C81282F30E08B81882F90E0B90102C006
:1037A000660F771F8A95E2F7CB01842B8C9351C06B
:1037B000A5E3B0E0E5E3F0E08081482F8B81282F7E
:1037C00030E081E090E002C0880F991F2A95E2F76F
:1037D000809584238C93A5E3B0E0E5E3F0E080815D
:1037E000482F8C81282F30E08B81882F90E0B90101
:1037F00002C0660F771F8A95E2F7CB01842B8C936A
:1038000028C0A2E3B0E0E2E3F0E08081482F8B81A2
:10381000282F30E081E090E002C0880F991F2A95A0
:10382000E2F7809584238C93A2E3B0E0E2E3F0E03A
:103830008081482F8C81282F30E08B81882F90E069
:10384000B90102C0660F771F8A95E2F7CB01842B7E
:103850008C93198202C082E08983898126960FB6F3
:10386000F894DEBF0FBECDBFCF91DF910895DF93F7
:10387000CF9300D000D000D0CDB7DEB78A836B8362
:103880004C8381E089838A81843008F0DBC08B819E
:10389000883008F0D7C08C81823008F0D3C08A818C
:1038A000282F30E03E832D838D819E8181309105CC
:1038B00009F443C02D813E81223031052CF48D81E5
:1038C0009E81009771F0BCC02D813E812230310570
:1038D00009F45FC08D819E818330910509F485C014
:1038E000AFC08C818130A1F4ABE3B0E0EBE3F0E05A
:1038F0008081482F8B81282F30E081E090E0022EDC
:1039000002C0880F991F0A94E2F7842B8C9398C009
:10391000ABE3B0E0EBE3F0E08081482F8B81282F10
:1039200030E081E090E0022E02C0880F991F0A94D7
:10393000E2F7809584238C9383C08C818130A1F43D
:10394000A8E3B0E0E8E3F0E08081482F8B81282FE6
:1039500030E081E090E0022E02C0880F991F0A94A7
:10396000E2F7842B8C936CC0A8E3B0E0E8E3F0E0CE
:103970008081482F8B81282F30E081E090E0022E5B
:1039800002C0880F991F0A94E2F7809584238C93D4
:1039900057C08C818130A1F4A5E3B0E0E5E3F0E00D
:1039A0008081482F8B81282F30E081E090E0022E2B
:1039B00002C0880F991F0A94E2F7842B8C9340C0B1
:1039C000A5E3B0E0E5E3F0E08081482F8B81282F6C
:1039D00030E081E090E0022E02C0880F991F0A9427
:1039E000E2F7809584238C932BC08C818130A1F4E5
:1039F000A2E3B0E0E2E3F0E08081482F8B81282F42
:103A000030E081E090E0022E02C0880F991F0A94F6
:103A1000E2F7842B8C9314C0A2E3B0E0E2E3F0E081
:103A20008081482F8B81282F30E081E090E0022EAA
:103A300002C0880F991F0A94E2F7809584238C9323
:103A4000198202C082E08983898126960FB6F89494
:103A5000DEBF0FBECDBFCF91DF910895DF93CF932F
:103A600000D000D00F92CDB7DEB78A836B8381E0A0
:103A700089838A81843008F073C08B81883008F094
:103A80006FC08A81282F30E03D832C838C819D81FB
:103A90008130910549F12C813D81223031052CF492
:103AA0008C819D81009761F05AC02C813D8122302C
:103AB000310571F18C819D8183309105E9F14FC011
:103AC000ABE3B0E0EBE3F0E08081482F8B81282F5F
:103AD00030E081E090E0022E02C0880F991F0A9426
:103AE000E2F784278C933BC0A8E3B0E0E8E3F0E082
:103AF0008081482F8B81282F30E081E090E0022EDA
:103B000002C0880F991F0A94E2F784278C9327C07C
:103B1000A5E3B0E0E5E3F0E08081482F8B81282F1A
:103B200030E081E090E0022E02C0880F991F0A94D5
:103B3000E2F784278C9313C0A2E3B0E0E2E3F0E065
:103B40008081482F8B81282F30E081E090E0022E89
:103B500002C0880F991F0A94E2F784278C93198278
:103B600089810F900F900F900F900F90CF91DF9160
:103B70000895DF93CF93CDB7DEB727970FB6F894AC
:103B8000DEBF0FBECDBF8A836B835D834C8381E034
:103B900089838C819D81009709F47DC08A8184305E
:103BA00008F076C08B81883008F072C08A81282F97
:103BB00030E03F832E834E815F814130510559F1C2
:103BC0008E819F818230910534F42E813F812115B1
:103BD000310569F05BC04E815F814230510579F15A
:103BE0008E819F818330910509F43DC04FC0E9E388
:103BF000F0E08081282F30E08B81882F90E0A901B0
:103C000002C0559547958A95E2F7CA018170EC810B
:103C1000FD8180833BC0E6E3F0E08081282F30E027
:103C20008B81882F90E0A90102C0559547958A9510
:103C3000E2F7CA018170EC81FD81808327C0E3E354
:103C4000F0E08081282F30E08B81882F90E0A9015F
:103C500002C0559547958A95E2F7CA018170EC81BB
:103C6000FD81808313C0E0E3F0E08081282F30E005
:103C70008B81882F90E0A90102C0559547958A95C0
:103C8000E2F7CA018170EC81FD818083198205C051
:103C900082E0898302C083E08983898127960FB6F9
:103CA000F894DEBF0FBECDBFCF91DF910895DF93B3
:103CB000CF930F92CDB7DEB781E08983A7E2B0E062
:103CC000E7E2F0E080818F738C93A7E2B0E0E7E257
:103CD000F0E0808181608C93A7E2B0E0E7E2F0E061
:103CE000808180628C93A0E5B0E0E0E5F0E0808127
:103CF0008F718C93A0E5B0E0E0E5F0E080818C93DB
:103D0000A6E2B0E0E6E2F0E0808180628C93A6E279
:103D1000B0E0E6E2F0E0808188608C93A6E2B0E05B
:103D2000E6E2F0E08081887F8C93A6E2B0E0E6E2F4
:103D3000F0E0808186608C93A7E2B0E0E7E2F0E0FB
:103D40008081807E8C93A7E2B0E0E7E2F0E08081A2
:103D50008C93A6E2B0E0E6E2F0E0808180688C938C
:103D6000198289810F90CF91DF910895DF93CF93CE
:103D700000D000D0CDB7DEB78A837C836B8381E02F
:103D800089838A81803208F050C0A6E2B0E0E6E282
:103D9000F0E0808180618C93A7E2B0E0E7E2F0E0A0
:103DA0008081807E8C93A7E2B0E0E7E2F0E0908132
:103DB0008A81892B8C93A6E2B0E0E6E2F0E0808174
:103DC00080648C93E6E2F0E0808182958F70882F8A
:103DD00090E0817090700097A9F3E4E2F0E08081B8
:103DE0008295869586958370882F90E0EB81FC8183
:103DF00091838083EB81FC8120813181E5E2F0E0D9
:103E00008081882F90E0880F991F880F991F822B3F
:103E1000932BEB81FC8191838083A6E2B0E0E6E204
:103E2000F0E0808180618C9302C082E089831982F6
:103E300089810F900F900F900F90CF91DF9108958F
:103E4000DF93CF930F92CDB7DEB781E08983A6E2EF
:103E5000B0E0E6E2F0E0808180648C931982898191
:103E60000F90CF91DF910895DF93CF9300D0CDB71E
:103E7000DEB78A8381E089838A81883049F4A6E2AB
:103E8000B0E0E6E2F0E080818F7D8C93198228C05B
:103E90008A81883018F5A0E5B0E0E0E5F0E08081A7
:103EA0008F7D8C93A0E5B0E0E0E5F0E08081282FE5
:103EB0008A81882F90E0880F991F82959295907F34
:103EC0009827807F9827822B8C93A6E2B0E0E6E2C9
:103ED000F0E0808180628C93198202C082E0898345
:103EE00089810F900F90CF91DF910895DF93CF9349
:103EF00000D0CDB7DEB78A8381E089838A818823A9
:103F0000A1F08A81883088F4A6E2B0E0E6E2F0E031
:103F10008081887F8C93A6E2B0E0E6E2F0E09081B9
:103F20008A81892B8C93198202C082E089838981DE
:103F30000F900F90CF91DF910895DF93CF9300D032
:103F40000F92CDB7DEB79B838A8381E089838A8114
:103F50009B81009779F0E5E2F0E08081882F90E086
:103F6000880F991F880F991FEA81FB8191838083B5
:103F7000198202C083E0898389810F900F900F908E
:103F8000CF91DF910895DF93CF9300D00F92CDB7FB
:103F9000DEB79B838A8381E089838A819B81009736
:103FA00011F0198202C083E0898389810F900F90FC
:103FB0000F90CF91DF910895DF93CF9300D00F92B0
:103FC000CDB7DEB79B838A8381E089838A819B8119
:103FD000009711F1E4E2F0E0808182958695869564
:103FE0008370882F90E0EA81FB8191838083EA814E
:103FF000FB8120813181E5E2F0E08081882F90E033
:10400000880F991F880F991F822B932BEA81FB81C0
:1040100091838083198202C083E0898389810F9014
:104020000F900F90CF91DF910895DF93CF930F9270
:10403000CDB7DEB781E08983A6E2B0E0E6E2F0E04A
:10404000808188608C93198289810F90CF91DF9154
:104050000895DF93CF930F92CDB7DEB781E08983C8
:10406000A6E2B0E0E6E2F0E08081877F8C931982DF
:1040700089810F90CF91DF910895DF93CF930F92B5
:10408000CDB7DEB781E08983A6E2B0E0E6E2F0E0FA
:10409000808180688C93198289810F90CF91DF9104
:1040A0000895DF93CF930F92CDB7DEB781E0898378
:1040B000A6E2B0E0E6E2F0E080818F778C9319828F
:1040C00089810F90CF91DF910895DF93CF9300D036
:1040D00000D00F92CDB7DEB79B838A837D836C833C
:1040E00081E089838A819B81009769F08A819B8125
:1040F0009093F7018093F6018C819D819093F90153
:104100008093F801198289810F900F900F900F9082
:104110000F90CF91DF9108951F920F920FB60F92DB
:1041200011242F933F934F935F936F937F938F93BC
:104130009F93AF93BF93EF93FF93DF93CF93CDB74D
:10414000DEB78091F6019091F701009749F0E09178
:10415000F601F091F7018091F8019091F90109952C
:10416000CF91DF91FF91EF91BF91AF919F918F918F
:104170007F916F915F914F913F912F910F900FBE63
:104180000F901F901895DF93CF9300D000D0CDB73C
:10419000DEB71A821B8281E08C83198253C0898129
:1041A000282F30E0C901880F991F820F931FFC014F
:1041B000EA57FE4F40818981282F30E0C901880FDE
:1041C000991F820F931FFC01E957FE4F9081842FA6
:1041D000692F40E00E945F1A8B838981282F30E08D
:1041E000C901880F991F820F931FFC01EA57FE4FE8
:1041F00050818981282F30E0C901880F991F820FD3
:10420000931FFC01E957FE4F40818981282F30E040
:10421000C901880F991F820F931FFC01E857FE4FB9
:104220009081852F642F492F0E944B1B8C838B819B
:10423000813019F08C81813011F481E08A83898189
:104240008F5F8983909185018981891708F4A7CFB1
:104250008A810F900F900F900F90CF91DF9108956A
:10426000DF93CF9300D000D0CDB7DEB78A837C83B5
:104270006B8381E089838B819C81009749F19091C8
:1042800085018A81981708F18A81282F30E0C901B9
:10429000880F991F820F931FFC01EA57FE4F408140
:1042A0008A81282F30E0C901880F991F820F931F40
:1042B000FC01E957FE4F90812B813C81842F692FAF
:1042C000A9010E94B91D898305C082E0898302C0CB
:1042D00083E0898389810F900F900F900F90CF9189
:1042E000DF910895DF93CF9300D0CDB7DEB781E0A3
:1042F0008A831982198231C08981882F90E0880FC2
:10430000991FFC01E657FE4F20818981882F90E09C
:10431000880F991FFC01E557FE4F9081822F692F6E
:1043200041E00E945F1A8981882F90E0880F991FD1
:10433000FC01E657FE4F20818981882F90E0880F8D
:10434000991FFC01E557FE4F9081822F692F40E0B5
:104350000E94371C89818F5F8983909189018981AF
:10436000891750F21A828A810F900F90CF91DF91B6
:104370000895DF93CF9300D0CDB7DEB78A8381E075
:104380008983909189018A818917C8F48A81882F4D
:1043900090E0880F991FFC01E657FE4F20818A812B
:1043A000882F90E0880F991FFC01E557FE4F908100
:1043B000822F692F41E00E94371C898302C082E06E
:1043C000898389810F900F90CF91DF910895DF93BA
:1043D000CF9300D0CDB7DEB78A8381E089839091F7
:1043E00089018A818917C8F48A81882F90E0880F13
:1043F000991FFC01E657FE4F20818A81882F90E0AB
:10440000880F991FFC01E557FE4F9081822F692F7D
:1044100040E00E94371C898302C082E08983898141
:104420000F900F90CF91DF910895DF93CF9300D03D
:10443000CDB7DEB781E08A83198219821AC08981DB
:10444000882F90E0880F991FFC01E657FE4F2081CE
:104450008981882F90E0880F991FFC01E557FE4F56
:104460009081822F692F41E00E94371C89818F5FE4
:104470008983909189018981891708F382E08A8371
:104480008A810F900F90CF91DF910895DF93CF93A2
:1044900000D0CDB7DEB781E08A83198219821AC0B5
:1044A0008981882F90E0880F991FFC01E657FE4F05
:1044B00020818981882F90E0880F991FFC01E557A2
:1044C000FE4F9081822F692F40E00E94371C898126
:1044D0008F5F8983909189018981891708F38A8187
:1044E0000F900F90CF91DF910895DF93CF9300D07D
:1044F000CDB7DEB781E08A831982198231C0898104
:10450000882F90E0880F991FFC01E357FE4F208110
:104510008981882F90E0880F991FFC01E257FE4F98
:104520009081822F692F41E00E945F1A8981882F34
:1045300090E0880F991FFC01E357FE4F208189818D
:10454000882F90E0880F991FFC01E257FE4F908161
:10455000822F692F40E00E94371C89818F5F8983F9
:1045600090918C018981891750F21A828A810F906B
:104570000F90CF91DF910895DF93CF9300D0CDB707
:10458000DEB78A8381E0898390918C018A818917C3
:10459000C8F48A81882F90E0880F991FFC01E357A7
:1045A000FE4F20818A81882F90E0880F991FFC019F
:1045B000E257FE4F9081822F692F41E00E94371C05
:1045C000898302C082E0898389810F900F90CF9107
:1045D000DF910895DF93CF9300D0CDB7DEB78A8304
:1045E00081E0898390918C018A819817C8F08A8133
:1045F000882F90E0880F991FFC01E357FE4F208120
:104600008A81882F90E0880F991FFC01E257FE4FA6
:104610009081822F692F40E00E94371C898302C05D
:1046200082E0898389810F900F90CF91DF91089567
:10463000DF93CF9300D000D0CDB7DEB78C831B8241
:104640001A828C818830D8F519828C8181508983B7
:1046500032C08981992787FD9095880F991FFC01A9
:10466000E357FE4F50818981992787FD9095880FE8
:10467000991FFC01E257FE4F40818C81282F30E0CA
:104680008981992787FD9095B90102C07595679535
:104690008A95E2F7CB01982F9170852F642F492FCF
:1046A0000E94371C8A838A81813011F481E08B83D8
:1046B000898181508983898188235CF602C082E0E8
:1046C0008B838B810F900F900F900F90CF91DF9184
:1046D0000895DF93CF9300D0CDB7DEB781E08A8312
:1046E000198219821AC08981882F90E0880F991F3A
:1046F000FC01E357FE4F20818981882F90E0880FCD
:10470000991FFC01E257FE4F9081822F692F41E0F3
:104710000E94371C89818F5F898390918C018981E8
:10472000891708F31A828A810F900F90CF91DF9139
:104730000895DF93CF9300D0CDB7DEB781E08A83B1
:10474000198219821AC08981882F90E0880F991FD9
:10475000FC01E357FE4F20818981882F90E0880F6C
:10476000991FFC01E257FE4F9081822F692F40E094
:104770000E94371C89818F5F898390918C01898188
:10478000891708F31A828A810F900F90CF91DF91D9
:104790000895DF93CF9300D00F92CDB7DEB79B8300
:1047A0008A8381E089838A819B81009739F0809197
:1047B0008C01EA81FB818083198202C083E08983B6
:1047C00089810F900F900F90CF91DF910895DF9323
:1047D000CF93CDB7DEB76D970FB6F894DEBF0FBE9F
:1047E000CDBF81E08D8F80E090E0ACE0B2E4898FB6
:1047F0009A8FAB8FBC8F698D7A8D8B8D9C8D20E0CD
:1048000030E04AE755E40E949E02DC01CB018D8B2B
:104810009E8BAF8BB88F6D897E898F89988D20E0B4
:1048200030E040E85FE30E94D40488232CF481E068
:1048300090E09C8B8B8B3FC06D897E898F89988D92
:1048400020E03FEF4FE757E40E94740418164CF540
:10485000698D7A8D8B8D9C8D20E030E040E251E4B3
:104860000E949E02DC01CB01BC01CD010E94C80068
:10487000DC01CB019C8B8B8B0FC080E991E09A8B84
:10488000898B89899A890197F1F79A8B898B8B8912
:104890009C8901979C8B8B8B8B899C89009769F7EE
:1048A00014C06D897E898F89988D0E94C800DC01B3
:1048B000CB019C8B8B8B8B899C89988B8F878F8569
:1048C00098890197F1F7988B8F8781E061E041E04B
:1048D0000E945F1A81E062E041E00E945F1A81E07D
:1048E00063E041E00E945F1A80E067E041E00E94DF
:1048F0005F1A80E066E041E00E945F1A80E065E0B8
:1049000041E00E945F1A80E064E041E00E945F1A8B
:1049100081E061E040E00E94371C80E067E040E019
:104920000E94371C80E066E040E00E94371C80E077
:1049300065E041E00E94371C80E064E040E00E94B6
:10494000371C81E063E041E00E94371C80E090E08A
:10495000A0E8BFE38B879C87AD87BE876B857C858E
:104960008D859E8520E030E04AE755E40E949E0256
:10497000DC01CB018F839887A987BA876F817885FF
:1049800089859A8520E030E040E85FE30E94D40406
:1049900088232CF481E090E09E838D833FC06F815B
:1049A000788589859A8520E03FEF4FE757E40E949C
:1049B000740418164CF56B857C858D859E8520E0EA
:1049C00030E040E251E40E949E02DC01CB01BC01D8
:1049D000CD010E94C800DC01CB019E838D830FC0F6
:1049E00080E991E09C838B838B819C810197F1F717
:1049F0009C838B838D819E8101979E838D838D8186
:104A00009E81009769F714C06F81788589859A85A2
:104A10000E94C800DC01CB019E838D838D819E8125
:104A20009A83898389819A810197F1F79A8389838F
:104A300081E063E040E00E94371C81E061E040E0FB
:104A40000E94371C88E20E947C2981E061E040E0FE
:104A50000E94371C8FE00E947C2981E061E040E0E9
:104A60000E94371C81E00E947C2981E061E040E0E7
:104A70000E94371C86E00E947C291D8E8D8D6D96CC
:104A80000FB6F894DEBF0FBECDBFCF91DF91089572
:104A9000DF93CF9300D0CDB7DEB78A8381E08983DF
:104AA00081E061E040E00E94371C8A810E947C29FD
:104AB000198289810F900F90CF91DF910895DF9334
:104AC000CF9300D0CDB7DEB78A8381E0898381E0C0
:104AD00061E041E00E94371C8A810E947C29198292
:104AE00089810F900F90CF91DF910895DF93CF933D
:104AF00000D000D0CDB7DEB78A836B834C8381E0D2
:104B000089838B81813188F58B81882371F18A813A
:104B1000833058F58A81882341F18C81853028F5CE
:104B20008C81882311F181E061E040E00E94371C14
:104B30008C81882F90E09C01215030408A81882F01
:104B400090E00197880F991F880F991F820F931F7C
:104B500082959295907F9827807F9827982F8B81B8
:104B6000890F81580E947C2902C082E08983898153
:104B70000F900F900F900F90CF91DF910895DF93DA
:104B8000CF9300D00F92CDB7DEB79B838A8381E0AD
:104B900089838A819B810097C1F010C081E061E028
:104BA00041E00E94371CEA81FB8120818A819B8140
:104BB00001969B838A83822F0E947C29EA81FB8154
:104BC0008081882359F7198202C083E08983898113
:104BD0000F900F900F90CF91DF910895DF93CF93B7
:104BE00000D00F92CDB7DEB78B8381E08A838B81B3
:104BF000882309F449C08B81853008F045C01982AB
:104C000081E061E040E00E94371C8B81882F90E0BA
:104C1000079682959295907F9827807F98270E948B
:104C20007C2981E061E041E00E94371C198206C0C6
:104C300080E20E947C2989818F5F8983898180310C
:104C4000B8F381E061E040E00E94371C8B81882F3F
:104C500090E00B9682959295907F9827807F982779
:104C60000E947C2981E061E041E00E94371C1982AA
:104C700006C080E20E947C2989818F5F89838981B7
:104C80008031B8F31A8202C082E08A838A810F9051
:104C90000F900F90CF91DF910895CF92EF920F93E5
:104CA000DF93CF93CDB7DEB72E970FB6F894DEBF64
:104CB0000FBECDBF9E838D836F83488729870A8768
:104CC000EB86CC8681E08C838D819E81009709F4F0
:104CD000B3C01B821A8219828F81882309F4A9C06C
:104CE0008F81893008F0A5C08885883008F0A1C080
:104CF0008885282F30E088E090E0AC01421B530B00
:104D00009A018F81882F90E0281739070CF491C001
:104D10008985882309F48DC08985833008F089C08E
:104D20008A85882309F485C08A85813108F081C08D
:104D30008C85823008F07DC08B85853008F079C085
:104D4000198219C08981282F30E08D819E81820FC0
:104D5000931F9B838A838981982F96959695969524
:104D60008885292F280F8A819B81622F0E94592BC9
:104D70008981885F89838981282F30E08F81882FFE
:104D800090E0880F991F880F991F880F991F281787
:104D90003907C4F281E061E040E00E94371C8C8555
:104DA000282F30E03E872D874D855E8541155105C2
:104DB00049F08D859E858130910539F486E00E9409
:104DC0007C2903C084E00E947C2981E061E040E00E
:104DD0000E94371C8B85882F90E09C012150304029
:104DE0008985882F90E00197880F991F880F991F58
:104DF000820F931F82959295907F9827807F9827A6
:104E0000982F8A85890F81580E947C2981E061E072
:104E100041E00E94371C198206C089810E947C29CA
:104E200089818F5F898399818F819817B0F31C8264
:104E300005C082E08C8302C083E08C838C812E9637
:104E40000FB6F894DEBF0FBECDBFCF91DF910F91AB
:104E5000EF90CF9008950F93DF93CF93CDB7DEB748
:104E60002E970FB6F894DEBF0FBECDBF6887798747
:104E70008A879B874C872D870E8781E08B831A82D8
:104E8000198288859985AA85BB85BB238CF481E02E
:104E9000898388859985AA85BB85B095A0959095CD
:104EA00081959F4FAF4FBF4F88879987AA87BB8750
:104EB00088859985AA85BB858C839D83AE83BF83B6
:104EC0008A818F5F8A838C819D81AE81BF812AE038
:104ED00030E040E050E0BC01CD010E942B34DA010B
:104EE000C9018C839D83AE83BF838C819D81AE81FC
:104EF000BF810097A105B10519F78C85882309F4B6
:104F000087C08C85833008F083C08D85882309F4A1
:104F10007FC08D85813108F07BC08E85853008F09B
:104F200077C08A81813108F073C088859985AA8508
:104F3000BB858C839D83AE83BF83CE0104960E9484
:104F40001A2C81E061E040E00E94371C8E85882F9A
:104F500090E09C01215030408C85882F90E0019793
:104F6000880F991F880F991F820F931F8295929522
:104F7000907F9827807F9827982F8D85890F81585B
:104F80000E947C2981E061E041E00E94371C898118
:104F9000882351F18DE20E947C2926C08C819D815D
:104FA000AE81BF812AE030E040E050E0BC01CD019D
:104FB0000E942B34DC01CB01805D0E947C298C8116
:104FC0009D81AE81BF812AE030E040E050E0BC012D
:104FD000CD010E942B34DA01C9018C839D83AE83FD
:104FE000BF838A8181508A838C819D81AE81BF81FC
:104FF0000097A105B10591F606C080E30E947C29C7
:105000008A8181508A838A818823B9F71B8202C0F2
:1050100082E08B838B812E960FB6F894DEBF0FBE95
:10502000CDBFCF91DF910F9108950F93DF93CF9371
:10503000CDB7DEB767970FB6F894DEBF0FBECDBF12
:10504000698B7A8B8B8B9C8B4D8B2E8B0F8B81E09E
:105050008C831B8281E08A83198269897A898B8992
:105060009C8920E030E040E050E00E94D404882396
:105070005CF481E0898389899A89AB89BC89B058BD
:10508000898B9A8BAB8BBC8B69897A898B899C893C
:105090000E94C800DC01CB018D839E83AF83B8875B
:1050A0008D819E81AF81B885BC01CD010E948805AC
:1050B0009B01AC0169897A898B899C890E94400295
:1050C000DC01CB0189879A87AB87BC878B818F5F97
:1050D0008B838D819E81AF81B8852AE030E040E0EE
:1050E00050E0BC01CD010E940934DA01C9018D8371
:1050F0009E83AF83B8878D819E81AF81B8850097ED
:10510000A105B10519F7CE01099661E00E94982C1E
:105110008D89882309F4E3C08D89833008F0DFC0CE
:105120008E89882309F4DBC08E89813108F0D7C0CD
:105130008F89853008F0D3C08A81813108F0CFC0D3
:1051400081E061E040E00E94371C8F89882F90E069
:105150009C01215030408D89882F90E00197880F65
:10516000991F880F991F820F931F82959295907FA8
:105170009827807F9827982F8E89890F81580E94C1
:105180007C2981E061E041E00E94371C898188230D
:1051900019F08DE20E947C2969897A898B899C8922
:1051A0000E94C800DC01CB018D839E83AF83B8874A
:1051B000CE0105960E941A2C26C08D819E81AF815A
:1051C000B8852AE030E040E050E0BC01CD010E940B
:1051D0000934DC01CB01805D0E947C298D819E8198
:1051E000AF81B8852AE030E040E050E0BC01CD015D
:1051F0000E940934DA01C9018D839E83AF83B88789
:105200008B8181508B838D819E81AF81B885009782
:10521000A105B10591F606C080E30E947C298B812F
:1052200081508B838B818823B9F789859A85AB85DB
:10523000BC85BC01CD0120E030E040E050E00E94A0
:105240004404882309F449C08EE20E947C298985A0
:105250009A85AB85BC85BC01CD010E94C800DC01EC
:10526000CB018D879E87AF87B88BCE010D960E94AC
:105270001A2C26C08D859E85AF85B8892AE030E03E
:1052800040E050E0BC01CD010E940934DC01CB01BB
:10529000805D0E947C298D859E85AF85B8892AE036
:1052A00030E040E050E0BC01CD010E940934DA0159
:1052B000C9018D879E87AF87B88B8A8181508A8389
:1052C0008A818823B9F606C080E30E947C298A81FE
:1052D00081508A838A818823B9F71C8202C082E0C8
:1052E0008C838C8167960FB6F894DEBF0FBECDBF5E
:1052F000CF91DF910F910895DF93CF93CDB7DEB7B4
:10530000AC970FB6F894DEBF0FBECDBF8CA781E07F
:105310008BA781E062E040E00E94371C81E063E0FF
:1053200040E00E94371C8CA5982F991F9927991F40
:1053300080E067E0492F0E94371C8CA582958695F6
:1053400086958370982F917080E066E0492F0E94C7
:10535000371C8CA5829586958770982F917080E078
:1053600065E0492F0E94371C8CA582958F70982F7D
:10537000917080E064E0492F0E94371C81E063E077
:1053800041E00E94371C80E090E0A0E8BFE38FA3DB
:1053900098A7A9A7BAA76FA178A589A59AA520E083
:1053A00030E04AE755E40E949E02DC01CB018BA36A
:1053B0009CA3ADA3BEA36BA17CA18DA19EA120E067
:1053C00030E040E85FE30E94D40488232CF481E0BD
:1053D00090E09AA389A33FC06BA17CA18DA19EA15F
:1053E00020E03FEF4FE757E40E94740418164CF595
:1053F0006FA178A589A59AA520E030E040E251E4AC
:105400000E949E02DC01CB01BC01CD010E94C800BC
:10541000DC01CB019AA389A30FC080E991E098A396
:105420008F8F8F8D98A10197F1F798A38F8F89A106
:105430009AA101979AA389A389A19AA1009769F7D4
:1054400014C06BA17CA18DA19EA10E94C800DC01AB
:10545000CB019AA389A389A19AA19E8F8D8F8D8D4F
:105460009E8D0197F1F79E8F8D8F81E063E040E084
:105470000E94371C8CA5869586958695982F9170ED
:1054800080E067E0492F0E94371C8CA586958695A1
:10549000982F917080E066E0492F0E94371C8CA500
:1054A0008695982F917080E065E0492F0E94371C07
:1054B0008CA5982F917080E064E0492F0E94371CE2
:1054C00081E063E041E00E94371C80E090E0A0E8CA
:1054D000BFE3898F9A8FAB8FBC8F698D7A8D8B8D4F
:1054E0009C8D20E030E04AE755E40E949E02DC01FA
:1054F000CB018D8B9E8BAF8BB88F6D897E898F8909
:10550000988D20E030E040E85FE30E94D4048823D7
:105510002CF481E090E09C8B8B8B3FC06D897E8961
:105520008F89988D20E03FEF4FE757E40E94740485
:1055300018164CF5698D7A8D8B8D9C8D20E030E0AE
:1055400040E251E40E949E02DC01CB01BC01CD018E
:105550000E94C800DC01CB019C8B8B8B0FC080E9C3
:1055600091E09A8B898B89899A890197F1F79A8BB7
:10557000898B8B899C8901979C8B8B8B8B899C89D0
:10558000009769F714C06D897E898F89988D0E9474
:10559000C800DC01CB019C8B8B8B8B899C89988B01
:1055A0008F878F8598890197F1F7988B8F8781E096
:1055B00063E040E00E94371C80E090E0A0E0B0E4AF
:1055C0008B879C87AD87BE876B857C858D859E8507
:1055D00020E030E04AE755E40E949E02DC01CB0166
:1055E0008F839887A987BA876F81788589859A85FF
:1055F00020E030E040E85FE30E94D40488232CF4EC
:1056000081E090E09E838D833FC06F81788589859E
:105610009A8520E03FEF4FE757E40E947404181684
:105620004CF56B857C858D859E8520E030E040E2E1
:1056300051E40E949E02DC01CB01BC01CD010E941D
:10564000C800DC01CB019E838D830FC080E991E00F
:105650009C838B838B819C810197F1F79C838B8347
:105660008D819E8101979E838D838D819E81009780
:1056700069F714C06F81788589859A850E94C80072
:10568000DC01CB019E838D838D819E819A838983EA
:1056900089819A810197F1F79A8389831BA68BA54B
:1056A000AC960FB6F894DEBF0FBECDBFCF91DF91A1
:1056B0000895DF93CF93CDB7DEB727970FB6F89451
:1056C000DEBF0FBECDBF9C838B836D8381E08A8359
:1056D0008B819C81009709F479C08D81883008F016
:1056E00072C0198281E061E040E00E94371C8D8128
:1056F000282F30E03F832E838E819F818330910558
:10570000A9F12E813F81243031057CF48E819F8167
:105710008130910519F12E813F812230310514F538
:105720008E819F810097B1F034C02E813F8125305A
:10573000310521F18E819F8185309105DCF02E812C
:105740003F8126303105F1F08E819F8187309105B0
:10575000E9F01FC080E40E947C291BC088E40E94FD
:105760007C2917C080E50E947C2913C088E50E942F
:105770007C290FC080E60E947C290BC088E60E942D
:105780007C2907C080E70E947C2903C088E70E942B
:105790007C2981E061E041E00E94371C19820EC043
:1057A0008981282F30E08B819C81FC01E20FF31F5F
:1057B00080810E947C2989818F5F898389818830DB
:1057C00078F31A8205C082E08A8302C083E08A836C
:1057D0008A8127960FB6F894DEBF0FBECDBFCF915A
:1057E000DF910895DF93CF9300D00F92CDB7DEB74E
:1057F0009B838A8381E089838A819B81009789F0DA
:10580000EA81FB8180818A3048F4EA81FB818081D2
:10581000805DEA81FB818083198205C082E08983F3
:1058200002C083E0898389810F900F900F90CF9100
:10583000DF910895EF92FF920F931F93DF93CF9321
:10584000CDB7DEB727970FB6F894DEBF0FBECDBF3A
:105850009F838E831D828E819F81009709F458C09B
:1058600019821A821B821C823CC089819A81AB8179
:10587000BC812AE030E040E050E0BC01CD010E9454
:10588000EA337B018C01EE81FF8180819181A281CD
:10589000B3812AE030E040E050E0BC01CD010E943D
:1058A0000934DC01CB018E0D9F1DA01FB11F898320
:1058B0009A83AB83BC83EE81FF8180819181A28139
:1058C000B3812AE030E040E050E0BC01CD010E940D
:1058D0000934DA01C901EE81FF8180839183A283BB
:1058E000B383EE81FF8180819181A281B381009792
:1058F000A105B10509F0B9CFEE81FF8189819A81B7
:10590000AB81BC8180839183A283B3831D8202C05B
:1059100083E08D838D8127960FB6F894DEBF0FBE8E
:10592000CDBFCF91DF911F910F91FF90EF90089520
:10593000EF92FF920F931F93DF93CF93CDB7DEB714
:105940002C970FB6F894DEBF0FBECDBF9B878A871A
:105950006C8719861D821E821F8218868A859B8508
:10596000009709F490C029C0EA85FB858081918168
:10597000A281B381BC01CD0120E030E040E251E4DE
:105980000E949E02DC01CB01EA85FB858083918326
:10599000A283B383EA85FB8580819181A281B38153
:1059A000BC01CD010E94C800DC01CB018D839E8328
:1059B000AF83B8878C8581508C87EA85FB85E08032
:1059C000F180028113816D817E818F8198850E9493
:1059D00088059B01AC01C801B7010E944002DC01AF
:1059E000CB01BC01CD0120E030E040E050E00E945E
:1059F0004404882309F0B8CF8C85882309F4B4CFF8
:105A0000EA85FB85E080F180028113816D817E81D2
:105A10008F8198850E9488059B01AC01C801B70160
:105A20000E944002DC01CB0189839A83AB83BC8353
:105A300069817A818B819C8120E030E040E251E4F1
:105A40000E949E02DC01CB0189839A83AB83BC83D5
:105A500069817A818B819C810E94C800DC01CB0125
:105A60008D839E83AF83B8878D819E81AF81B885FA
:105A700085309105A105B10540F08A859B85049686
:105A80009B878A8702C083E0898789852C960FB619
:105A9000F894DEBF0FBECDBFCF91DF911F910F9164
:105AA000FF90EF900895DF93CF9300D0CDB7DEB78E
:105AB00081E08A831982198231C08981882F90E020
:105AC000880F991FFC01ED56FE4F20818981882F98
:105AD00090E0880F991FFC01EC56FE4F9081822FB9
